:020000040800F2
:1000000090040020C1010008D912000895060008DC
:10001000D512000835020008FB200008000000008F
:100020000000000000000000000000002D1F00087C
:1000300071030008000000006D1300088D20000807
:10004000DB010008DB010008DB010008DB01000820
:10005000DB010008DB010008730300087D030008D2
:10006000DB01000887030008DB010008DB01000852
:10007000DB01000839020008DB01000879020008F2
:10008000DB010008DB010008DB010008DB010008E0
:10009000DB010008DB010008DB010008DB010008D0
:1000A000DB010008DB010008DB010008DB010008C0
:1000B000DB010008F9200008DB010008DB01000873
:1000C000DB010008DB010008DB010008DB010008A0
:1000D000DB010008DB010008DB010008DB01000890
:1000E000DB01000821150008DB010008DB01000826
:1000F000DB010008DB010008DB010008DB01000870
:10010000DB010008DB010008DB010008DB0100085F
:10011000DB010008DB010008DB010008DB0100084F
:10012000DB010008DB010008DB010008DB0100083F
:10013000DB010008DB010008DB010008DB0100082F
:10014000DB010008DB010008DB010008DB0100081F
:10015000DB010008DB010008DB010008DB0100080F
:10016000DB010008DB010008DB010008DB010008FF
:10017000DB010008DB010008DB010008DB010008EF
:10018000DB010008DB010008DB010008DB010008DF
:10019000DB010008DB010008DB010008DB010008CF
:1001A000DB010008DB010008DB010008DFF80CD0F0
:1001B00000F02EF800480047E922000890040020D3
:1001C0000648804706480047FEE7FEE7FEE7FEE7F1
:1001D000FEE7FEE7FEE7FEE7FEE7FEE79120000808
:1001E000AD01000830B50B46014600202022012455
:1001F00009E021FA02F59D4205D303FA02F5491BF5
:1002000004FA02F52844151EA2F10102F1DC30BD0A
:10021000064C074D06E0E06840F0010394E8070053
:1002200098471034AC42F6D3FFF7C4FF704D000876
:10023000904D000800BFFEE710B54FF081510B480C
:1002400000F076F880B10121094800F025FA00217C
:10025000064800F061F84FF08151044800F042F880
:10026000002004490968088010BD00004060024079
:10027000005C00406800002010B51449144800F0EC
:1002800057F810B30021124800F046F80F49104803
:1002900000F028F84FF420400E49086007E00D49AF
:1002A0000868411E0B4A116008B902F069F80A4952
:1002B0000A4800F0FDF90028F1D00121074800F0BC
:1002C000EBF9002006490968087010BD20000020E5
:1002D000706002406400002004000010005C0040D8
:1002E0006C0000200246094B9A4201D2084801E006
:1002F0000648103811F0005F03D0064B0B40C36076
:1003000002E0044B0B408360704700001064024021
:10031000006002407D0F7D0F21B1026842F00102B2
:10032000026003E0026822F00102026070470000F0
:1003300030B503460A46002000240A4DAB4201D2E4
:10034000094901E00749103912F0005F01D04C68FB
:1003500000E00C68054D2C40144201D0012000E063
:10036000002030BD10640240006002407D0F7D0F10
:10037000704710B5012000F007F810BD10B502203D
:1003800000F002F810BD7047014908607047000096
:10039000143C0140002123498279002A3AD00A46C0
:1003A000126803689A430B461A600A1D12680368B4
:1003B0009A430B1D1A60027911440A6803681A43B4
:1003C0000A60184A0832126803689A43154B0833CA
:1003D0001A601A1D126803689A43124B0C331A6094
:1003E0004279102A0ED11A1F126803681A430D4B66
:1003F00008331A601A1D126803681A43094B0C333C
:100400001A600DE00749427911440A6803681A43EB
:100410000A6005E0027911440A6803689A430A6099
:1004200070470000003C01407047000010B50246D4
:1004300000200023102A03D14FF02044636E0DE00A
:10044000B2F5807F02D1094C236807E0B2F5805FE6
:1004500002D1074C236801E0064C236803EA01043B
:100460008C4201D0002000E0012010BD840000A0DB
:10047000A40000A0580100A00021D0E900231A43E5
:1004800083685B1E42EA4312C36842EA4321014A81
:1004900011607047500100A070B5002100220023B8
:1004A0000024D0E901563543C66835430669354313
:1004B0004669354386693543C6693543066A35431F
:1004C000466A45EA060105683DB94FF020460568D1
:1004D00006EB8505C5F840110EE0D0E90756354317
:1004E000466A45EA0603294D2B604FF02046056811
:1004F00006EB8505C5F84011056835BB856A2D6892
:100500006D1E866A7668761E45EA0616856AAD68AF
:100510006D1E46EA0526856AED686D1E46EA0536BB
:10052000856A2D8A6D1E46EA0546856AAD8A6D1E6E
:1005300046EA0556856A2D7E6D1E46EA0562134D14
:100540000835066845F826201FE0856A2D686D1E6F
:10055000866A7668761E45EA0616856AAD686D1E5F
:1005600046EA0526856A2D8A6D1E46EA0542856A99
:10057000ED686D1E2E03856AAD8A6D1E46EA055430
:10058000034D2C60066845F8262070BD400100A090
:10059000480100A00449096841EA40014FF02042A7
:1005A000C2F8541170470000540100A0F0B50A468B
:1005B00000210023002400BF3DE0012505FA01F3DE
:1005C000156805EA03049C4234D105684F000326F0
:1005D000BE40B543056015794E00B5400668354309
:1005E00005601579012D02D01579022D16D1856887
:1005F0004F000326BE40B543856055794E00B54097
:10060000866835438560456801268E40B543456060
:10061000456896798E40B6B235434560C5684F004F
:100620000326BE40B543C560D5794E00B540C668C7
:100630003543C560491C1029BFD3F0BDF0B5002378
:1006400000244D07ED0E02FA05F3CE1000F120054F
:1006500055F826504E07F70E0F26BE40B543CF1073
:1006600000F1200646F82750CE1000F1200555F87D
:10067000265045EA0304CE1000F1200545F8264037
:10068000F0BD41837047018370470AB1018300E0E8
:100690004183704700BFFEE721B1028842F4007237
:1006A000028004E002884FF6FF531A400280704730
:1006B0000CB50246002000230193009300920B0F1B
:1006C000019321F07F41019B1BB1009B14330093E8
:1006D00003E0090C009B18330093009B1B680B423E
:1006E00001D0012000E000200CBD00001CB501215C
:1006F0006F2000F03DFE0E2203215048FFF79EFFC1
:100700000E2204214D48FFF799FF0E2206214B4887
:10071000FFF794FF0E220B214848FFF78FFF0E22B0
:100720000C214648FFF78AFF41F65800009002204E
:100730008DF805008DF8040000208DF806008DF876
:10074000070069463D48FFF731FF092200213C4878
:10075000FFF774FF092201213948FFF76FFF0E22CE
:1007600008213748FFF76AFF0E2209213448FFF7B6
:1007700065FF0E220A213248FFF760FF0E220B218F
:100780002F48FFF75BFF40F60370009069462C4846
:10079000FFF70CFF0E2206212A48FFF74FFF0E221B
:1007A00007212848FFF74AFF0E220A212548FFF7B4
:1007B00045FF4FF49860009069462248FFF7F6FE27
:1007C0000E2203212048FFF739FF0E2206211E4882
:1007D000FFF734FF4820009069461B48FFF7E6FE0C
:1007E0000E220A211948FFF729FF4FF4806000907C
:1007F00069461648FFF7DAFE0E2206211448FFF775
:100800001DFF0E2207211248FFF718FF09220A21B7
:100810000F48FFF713FF0E220B210D48FFF70EFFC5
:1008200009220C210A48FFF709FF4FF4E650009017
:1008300069460748FFF7BAFE1CBD000000000240F1
:100840000004024000080240000C02400014024074
:100850000018024010B5044624B904210448FFF7EB
:1008600010FF03E004210248FFF70DFF10BD000058
:10087000000802400146002000BF04E0044B1B6852
:1008800023F81010401CB0F5A02FF7D370470000DC
:10089000540000201CB501210C2000F069FD04204B
:1008A000009002208DF8050001208DF80400002042
:1008B0008DF806008DF8070069460848FFF776FEB8
:1008C0004FF40050009069460548FFF76FFE012283
:1008D0000421024800F006F81CBD00000008024098
:1008E000000C024070B504460D46164632462946B5
:1008F0002046FFF7CAFE70BD70B505460E46144689
:10090000A4F12000C4B207480068016805480068E7
:10091000C088604301EB40023146284600F02EF8C3
:1009200070BD00005C00002070B506460C46002536
:100930000AE0227829463046FFF7DEFF0E480068BD
:100940008088284485B2641CF02D13DA0A480068B8
:100950008088284480B2084909688988884201DB78
:10096000012000E00020217809B1012100E00021F0
:100970000842DED170BD00005C0000202DE9F0418E
:1009800004460D46134600BF002200BF0020C4EB02
:1009900004177E01284400214DE000223FE0294F4A
:1009A0003F68BF884FF00C0C97FBFCF74FEAC70C71
:1009B000802707FA0CF7174133F811C017EA0C0F1C
:1009C00004D1204F3F68BF880C2F0DDD33F8117024
:1009D0004FF0010C0CFA02FC17EA0C0F11D1194F61
:1009E0003F68BF880C2F0CDD174F3F88DFF85CC0D5
:1009F000DCF800C04FF0020808FB00CC2CF80670B1
:100A00000BE0134F3F88DFF844C0DCF800C04FF024
:100A1000020808FB00CC2CF80670401C521C094F41
:100A20003F68BF889742BAD8064F3F68BF88C7F172
:100A3000F0073844491C034F3F68FF888F42ACD809
:100A4000BDE8F0815C00002052000020540000202E
:100A50005000002001480068704700005C00002042
:100A600000B58FB0FFF716FF0020FFF7F3FE01205F
:100A7000FFF7F0FE00F0DAF900F092F801218806A5
:100A800000F0B6FC0121C80500F072FCFFF72EFE55
:100A900001F0D0F8002000900190029003900C909B
:100AA0000D900E9004220721C02000F009FD4FF4A4
:100AB000003000F0F3FC012000F0FCFC00BF3D2002
:100AC00000F0B6FC0028FAD009200490012005901F
:100AD0001D2006900320079040F20D10089040F270
:100AE0004310099040F217100A9040F247100B9003
:100AF000684600F08FFA0FB000BD000000B591B05D
:100B00001E20019040F20D1002900420039040F24C
:100B10004310049002200590FF20069000200790CB
:100B2000089009900A904FF480600B9005200C907B
:100B300040F2E3100E90C01E0F904FF4A070109082
:100B40004FF050400D9001A9124800F032FB1248BE
:100B50000D904FF4C0600B9007200C9001A90D4838
:100B6000803000F026FB012000F0AEFB0121094897
:100B700000F014FB01210748803000F00FFB01203A
:100B800000F0A2FB054800F0BBF9012000F030FAAC
:100B900011B000BD84680140000005D03000002085
:100BA00010B5CA2000F0C8F9C32000F0EBF9082006
:100BB00000F0E8F9502000F0E5F9CF2000F0BCF992
:100BC000002000F0DFF9C12000F0DCF9302000F057
:100BD000D9F9ED2000F0B0F9642000F0D3F903203A
:100BE00000F0D0F9122000F0CDF9812000F0CAF910
:100BF000E82000F0A1F9852000F0C4F9002000F001
:100C0000C1F9782000F0BEF9CB2000F095F9392029
:100C100000F0B8F92C2000F0B5F9002000F0B2F98E
:100C2000342000F0AFF9022000F0ACF9F72000F01A
:100C300083F9202000F0A6F9EA2000F07DF90020D9
:100C400000F0A0F9002000F09DF9B12000F074F947
:100C5000002000F097F91B2000F094F9B62000F076
:100C60006BF90A2000F08EF9A22000F08BF9C02069
:100C700000F062F9102000F085F9C12000F05CF965
:100C8000102000F07FF9C52000F056F9452000F053
:100C900079F9152000F076F9C72000F04DF9902081
:100CA00000F070F9362000F047F9C82000F06AF92A
:100CB000F22000F041F9002000F064F9B02000F0CB
:100CC0003BF9C22000F05EF9B62000F035F90A20A9
:100CD00000F058F9A72000F055F9272000F052F94C
:100CE000042000F04FF92A2000F026F9002000F03F
:100CF00049F9002000F046F9002000F043F9EF2008
:100D000000F040F92B2000F017F9002000F03AF92C
:100D1000002000F037F9012000F034F93F2000F006
:100D200031F9F62000F008F9012000F02BF900203D
:100D300000F028F9062000F025F92C2000F0FCF83E
:100D4000C82001F0B0FA262000F0F6F8012000F0EB
:100D500019F9E02000F0F0F80F2000F013F9292035
:100D600000F010F9242000F00DF90C2000F00AF931
:100D70000E2000F007F9092000F004F94E2000F0E1
:100D800001F9782000F0FEF83C2000F0FBF8092083
:100D900000F0F8F8132000F0F5F8052000F0F2F864
:100DA000172000F0EFF8112000F0ECF8002000F020
:100DB000E9F8E12000F0C0F8002000F0E3F8162088
:100DC00000F0E0F81B2000F0DDF8042000F0DAF875
:100DD000112000F0D7F8072000F0D4F8312000F0FF
:100DE000D1F8332000F0CEF8422000F0CBF80520F7
:100DF00000F0C8F80C2000F0C5F80A2000F0C2F896
:100E0000282000F0BFF82F2000F0BCF80F2000F0E1
:100E1000B9F8112000F090F8C82001F044FA292018
:100E200000F08AF82C2000F087F810BD00B587B0DC
:100E30000121202000F09CFA0121080500F0D8FAD9
:100E40008020009001208DF8050002208DF804001C
:100E500000208DF8060002208DF80700694626481C
:100E6000FFF7A4FB4FF48070009069462248FFF71B
:100E70009DFB4FF40070009069461F48FFF796FBFA
:100E8000052207211C48FFF7D9FB052208211A4833
:100E9000FFF7D4FB052209211748FFF7CFFB1748BE
:100EA00000F06CFF1548008810F0400F22D10020A0
:100EB000ADF808004FF48270ADF80A000020ADF8DC
:100EC0000C00ADF80E00ADF810004FF40070ADF856
:100ED00012001820ADF814000020ADF8160007200D
:100EE000ADF8180002A9054800F0ABFF0121034846
:100EF00000F038FF07B000BD001402400050014070
:100F000001490860704700005C00002038B94FF0CC
:100F10005041064A11600021054A116005E005496B
:100F2000024A11600121024A1160704754000020FA
:100F300058000020000005D010B5044600224FF4F0
:100F400000510E48FFF7CEFC0020FFF783FC21463E
:100F50000B4800F074FF00BF0221094800F066FF53
:100F60000028F9D000BF8021054800F05FFF00286D
:100F7000F9D10120FFF76EFC10BD0000000C02400B
:100F80000050014010B50446012251030D48FFF7FF
:100F9000A9FC0020FFF75EFC21460B4800F04FFF44
:100FA00000BF0221084800F041FF0028F9D000BF2F
:100FB0008021054800F03AFF0028F9D10120FFF711
:100FC00049FC10BD000C02400050014030B10749FF
:100FD000096841F00101054A116005E0034909680B
:100FE00021F00101014A11607047000018680140BA
:100FF00030B10749096841F48031054A116005E0C4
:101000000349096821F48031014A116070470000EA
:1010100018680140F0B500210022002300240025BB
:1010200000265B4F3F68DFF86CC107EA0C07DFF86A
:1010300060C1CCF80070078A390467463F68D0F871
:1010400014C04CEA010C47EA0C07DFF844C1CCF8A5
:1010500000700CF104073F68DFF838C107EA0C079D
:10106000DFF82CC10CF1040CCCF80070078B3A04AB
:1010700067463F68D0F81CC04CEA020C47EA0C07F0
:10108000DFF80CC10CF1040CCCF800700CF1040773
:101090003F68DFF800C107EA0C07DFF8F4C00CF185
:1010A000080CCCF80070078C3B0467463F68D0F80A
:1010B00024C04CEA030C47EA0C07DFF8D4C00CF15B
:1010C000080CCCF800700CF104073F68DFF8C4C0CE
:1010D00007EA0C07DFF8B8C00CF10C0CCCF8007074
:1010E000078D3C046746D7F800C0C76A27434CEA1F
:1010F000070C274F0C37C7F800C03F1D3F68DFF8CB
:1011000098C007EA0C07DFF888C00CF1100CCCF887
:101110000070D0E9007C47EA0C07D0F808C047EA25
:101120000C07D0F80CC047EA0C07DFF864C00CF1DC
:10113000100CDCF800C047EA0C07DFF854C00CF1D3
:10114000100CCCF80070476B3D02078E3E04104F28
:1011500024373F6807F07F47DFF834C00CF1240CD8
:10116000CCF8007046EA0507D0F838C047EA0C070B
:10117000DFF81CC00CF1240CDCF800C047EA0C07B7
:10118000DFF80CC00CF1240CCCF80070F0BD0000AE
:101190000868014000F800F08F88FE0F21B1026856
:1011A00042F00102026003E0026822F001020260E4
:1011B00070472DE9F0410024002500260022002779
:1011C0000023B1F804C04FEA0C44D0F804C00CF47A
:1011D000704CC0F804C0D1F800C04CEA040CC0F850
:1011E00004C0B1F80CC04FEA0C45D0F808C00CF4AC
:1011F000704CC0F808C0D1F808C04CEA050CC0F823
:1012000008C0D0F810C02CF0070CC0F810C0D1F8FE
:1012100010C0C0F810C0D1F81CC04FEA0C26B1F8BD
:1012200020C04FEA0C4291F824C04FEA0C67D0F876
:1012300018C09C46C0F818C0D1F818C04CEA060C7B
:101240004CEA020C4CEA070CC0F818C0D0F814C0E5
:101250002CF0FF0CC0F814C0D1F814C0C0F814C0B2
:10126000D0F81CC040F207782CEA080CC0F81CC06B
:10127000D1E90AC84CEA080CC0F81CC0D0F828C054
:101280009C46C0F828C0D1F830C0C0F828C0B1F8DA
:1012900038C04FEA0C43D0F82CC00CF0E02CC0F85A
:1012A0002CC0D1F834C04CEA030CC0F82CC0D0F8E4
:1012B00030C06FF30A0CC0F830C0D1F83CC0C0F8A1
:1012C00030C0BDE8F08100000149086070470000AF
:1012D0002468014000BFFEE77047000070B50021A0
:1012E00000230F22C47824B3174C246804F4E0646C
:1012F000C4F5E064C4F30721C1F10404E3B20A4178
:1013000044789C40E1B28478144021430C07210EBC
:101310000E4C05786155047804F01F050124AC409B
:1013200005786D114FF0E02606EB8505C5F8004104
:1013300009E0047804F01F040125A540044C067858
:10134000761144F8265070BD0CED00E000E400E09A
:1013500080E100E010B50121002000F091FD10BDFA
:10136000014908627047000000000E42704700000B
:1013700029B1064A12680243044B1A6004E0034A8A
:1013800012688243014B1A607047000030380240F7
:1013900029B1064A12680243044B1A6004E0034A6A
:1013A00012688243014B1A607047000038380240CF
:1013B00029B1064A12680243044B1A6004E0034A4A
:1013C00012688243014B1A607047000040380240A7
:1013D00029B1064A12680243044B1A6004E0034A2A
:1013E00012688243014B1A607047000020380240A7
:1013F00029B1064A12680243044B1A6004E0034A0A
:1014000012688243014B1A60704700004438024062
:1014100029B1064A12680243044B1A6004E0034AE9
:1014200012688243014B1A60704700002438024062
:1014300010B501460022002300204A11012A02D1E2
:101440000A4C236808E0022A03D1084C7034236850
:1014500002E0064C7434236801F01F02012494401A
:101460001C4201D0012000E0002010BD00380240E5
:101470000021094A11701170012802D0042808D1F6
:1014800003E00121044A117004E00521024A1170B1
:1014900000E000BF00BF70477038024001460020E6
:1014A000034A106820F44030084310607047000081
:1014B0008C3802400149086770470000000047422D
:1014C00010B5830143EA016343EA0273014C2360D0
:1014D00010BD0000883802400149086070470000D4
:1014E0003C0E4742002100F44072B2F5407F08D123
:1014F000094A116821F4F811084A02401143064ACA
:101500001160054A68321268C0F30B031A43024B9C
:1015100068331A607047000008380240FFFCFF0F74
:101520007047014600BF080900EB8000420001F04F
:101530000F001044C0B270470146002204E0501C66
:10154000C2B2A1F10A00C1B20A29F8DA100741EAD1
:101550001060704710B501210807FFF729FF01202F
:10156000FFF7FEFE0120FFF783FF00BF4120FFF7DA
:101570005FFF0028FAD04FF48070FFF7B3FF01201F
:10158000FFF7AAFF00F0D0F97F2018494860FF203C
:10159000886000200860084600F0BAF8002014496E
:1015A000087048708870012000F048F90520114942
:1015B000487001200870302088701120C870012008
:1015C00000F0D8F8002000F0DFF940F2FF7000F0E2
:1015D0009DF90121880300F069F8012000F0ECF981
:1015E00001218804FFF7C4FE10BD00008400002024
:1015F000180000201C00002008B5002200920020E6
:101600000021104A126812F0400F19D1421E0D4BF2
:101610001A6000BF0B4A126802F04001009A521C87
:101620000092009AB2F5803F01D00029F2D0054A1D
:10163000126812F0400F01D0012002E0002000E00B
:10164000012008BD0C2800400348006820F08000FD
:1016500001490860704700000C28004070B506463C
:101660000C4600250F4800680F4900EA0105C5F344
:1016700005402070C5F30620607005F07F00A07063
:1016800005F48000000CE0705EB92078FFF749FF98
:1016900020706078FFF745FF6070A078FFF741FF8A
:1016A000A07070BD002800407F7F7F00CA22174BCA
:1016B0001A6053221A6091B1144A1C3A126820F041
:1016C00004031A43114B1C3B1A60104A1C32126867
:1016D00000F004031A430D4B1C331A6011E00B4A4F
:1016E0001C3A126820F004039A43084B1C3B1A6012
:1016F000064A1C32126800F004039A43034B1C3361
:101700001A60FF22014B1A60704700002428004035
:1017100030B504460025CA201549086053200860EA
:10172000FFF76AFF00B91DE011481C38006820F07F
:1017300040000F491C3908600846006821680843CA
:101740000B491C3908600A491439A068086008462A
:101750000068A18840EA0140054914390860FFF794
:1017600073FF0125FF2002490860284630BD0000B4
:10177000242800402DE9F04105460C4600260027AC
:101780004DB9607800F01000102804D1607820F086
:1017900010000A30607005B908E06078FFF7C1FEFC
:1017A0000646A078FFF7BDFE064600BF55B1E078BB
:1017B0000004617840EA0120A1780843217840EADA
:1017C000413611E0E078FFF7B7FE4FEA0048607855
:1017D000FFF7B2FE48EA0028A078FFF7ADFE48EA1E
:1017E0000008207848EA4036CA2012490860532091
:1017F0000860FFF701FF08B9002714E00E483040E9
:101800000C4920390860FFF71FFF0A481C380068A0
:1018100010F0200F06D100F087F808B9002702E089
:10182000012700E00127FF20024908603846BDE893
:10183000F0810000242800403FFFFF002DE9F04127
:1018400005460C46002600274DB92E48006810F0CA
:10185000400F00D002E00020E07000BF0DE02948FA
:10186000006810F0400F04D02078FFF75AFE0646BB
:1018700002E00020E07000BF00BF55B120780004F6
:10188000617840EA0120A1780843E17840EA014606
:1018900011E02078FFF750FE4FEA00486078FFF72C
:1018A0004BFE48EA0028A078FFF746FE48EA000809
:1018B000E07848EA0046CA2012491C3108605320EB
:1018C0000860FFF799FE08B9002713E00E48304082
:1018D0000C4908390860FFF7B7FE0A48006810F0A5
:1018E000200F06D100F020F808B9002702E00127F8
:1018F00000E00127FF2003491C3108603846BDE89D
:10190000F0810000082800407F7F7F00CA21054A3F
:10191000116053211160034910390860FF211160E3
:10192000704700002428004008B5002200920020E3
:101930000021CA22134B1A6053221A60114A183A26
:10194000126822F0A0020F4B183B1A6000BF0D4A2C
:10195000183A126802F02001009A521C0092009A74
:10196000B2F5003F01D00029F1D0064A183A1268BA
:1019700012F0200F01D0012000E00020FF22014BD7
:101980001A6008BD24280040CA210A4A1160532168
:10199000116008491C39096821F00701054A1C3A01
:1019A00011601146096801431160FF21014A11606D
:1019B000704700002428004018B50146002300931A
:1019C00000220020CA23194C23605323236049B10D
:1019D000164B1C3B1B6843F48063144C1C3C236077
:1019E00001201FE0114B1C3B1B6823F480630F4C4C
:1019F0001C3C236000BF0D4B183B1B6803F0040226
:101A0000009B5B1C0093009BB3F5803F01D0002A34
:101A1000F1D0064B183B1B6813F0040F01D10020D6
:101A200000E00120FF23014C236018BD2428004062
:101A30001CB501217E20FFF79BFC02208DF80400DD
:101A40008DF8050000208DF806008DF807000C22A7
:101A500005217248FEF7F2FD0C2206216F48FEF7C1
:101A6000EDFD6020009069466C48FEF79FFD0C225A
:101A700000216B48FEF7E2FD0120009069466848AE
:101A8000FEF794FD0C2200216648FEF7D7FD0C22DC
:101A900001216448FEF7D2FD0C2208216148FEF7BF
:101AA000CDFD0C2209215F48FEF7C8FD0C220A215A
:101AB0005C48FEF7C3FD0C220E215A48FEF7BEFD1E
:101AC0000C220F215748FEF7B9FD4CF2037000902D
:101AD00069465448FEF76AFD0C2200215248FEF781
:101AE000ADFD0C2201215048FEF7A8FD0C22072174
:101AF0004D48FEF7A3FD0C2208214B48FEF79EFD42
:101B00000C2209214848FEF799FD0C220A2146487B
:101B1000FEF794FD0C220B214348FEF78FFD0C22AB
:101B200011464148FEF78AFD0C220D213E48FEF782
:101B300085FD0C220E213C48FEF780FD0C220F2172
:101B40003948FEF77BFD4FF68370009069463648B2
:101B5000FEF72CFD0C2200213448FEF76FFD0C220D
:101B600001213248FEF76AFD0C2202212F48FEF7C0
:101B700065FD0C2203212D48FEF760FD0C22042197
:101B80002A48FEF75BFD0C2205212848FEF756FD8A
:101B90000C220B212548FEF751FD0C22114623484B
:101BA000FEF74CFD0C220D212048FEF747FD0C22CC
:101BB0000E211E48FEF742FD0C220F211B48FEF7A6
:101BC0003DFD4FF63F00009069461848FEF7EEFCD9
:101BD0000C2200211648FEF731FD0C220121144889
:101BE000FEF72CFD0C2204211148FEF727FD0C22E4
:101BF00005210F48FEF722FD0C2208210C48FEF7B4
:101C00001DFD0C220F210A48FEF718FD48F2331083
:101C1000009069460648FEF7C9FC1CBD000402405E
:101C200000080240000C0240001002400014024074
:101C30000018024000B593B0FFF7FAFE01210846F4
:101C4000FFF7A6FB022001900720029004200390DA
:101C5000072004900220059006900790012008902C
:101C60000020099004200A9010200B9040200C9036
:101C70004FF4C0700D9000200E904FF400600F9054
:101C8000002010904FF40050119001A8129008A865
:101C9000FEF702FC00F002F813B000BD1FB50024EF
:101CA0000120009008200190012002900020039064
:101CB00000BF20210120FEF7B9FB0028F9D16846BA
:101CC000FEF7DAFB0A2000F0FDFA0220009008205F
:101CD0000190012002900020039000BF20210120EC
:101CE000FEF7A4FB0028F9D16846FEF7C5FB0320E8
:101CF000009008200190042002900020039000BF73
:101D000020210120FEF792FB0028F9D16846FEF75A
:101D1000B3FB00BF20210120FEF788FB0028F9D18A
:101D20006846FEF7A9FB40F2312404200090082009
:101D3000019001200290039400BF20210120FEF7B2
:101D400075FB0028F9D16846FEF796FB40F26A5011
:101D5000FEF720FC00BF20210120FEF767FB0028D2
:101D6000F9D11FBD21B1028842F04002028004E097
:101D700002884FF6BF731A400280704710B50446C0
:101D80002448844208D101218014FFF741FB00213F
:101D9000A014FFF73DFB3CE01F48844208D101211D
:101DA0000014FFF715FB00212014FFF711FB30E0B2
:101DB0001A48844208D10121C013FFF709FB002112
:101DC000E013FFF705FB24E01548844208D1012108
:101DD0004014FFF71DFB00216014FFF719FB18E00A
:101DE0001048844209D101210805FFF711FB0021A9
:101DF0004FF48010FFF70CFB0BE00B48844208D136
:101E000001214805FFF704FB00214FF40010FFF704
:101E1000FFFA10BD0030014000380040003C004097
:101E200000340140005001400054014002460020AF
:101E300013890B4201D0012000E00020704781810E
:101E4000704710B50022028802F441520B884C887A
:101E500023438C882343CC8823430C8923434C8918
:101E600023438C892343CC8923431A430280838BE9
:101E70004FF2FF74234083830B8A038210BD00005E
:101E800030B585B004460D46214951F824000121A2
:101E9000FFF76EFA01218803FFF7AAFA00208DF8F8
:101EA000100002208DF813001A4830F81400039037
:101EB000194951F8240003A9FEF778FB012D24D11C
:101EC000164A115D164A105D00F032F8154830F8D8
:101ED0001400019000208DF8080008208DF80900FA
:101EE00001208DF80A0001A8FEF754FA0E48005DA3
:101EF0008DF800000F208DF801008DF80200012000
:101F00008DF803006846FFF7E9F905B030BD000021
:101F10009423000890230008280000209B23000839
:101F20009A230008982300089C23000870470000AB
:101F300030B500228B071C0F0F2303FA04F20B4B62
:101F40008C1053F824309343084C8D1044F82530FE
:101F500023468C1053F824308C07240F00FA04F425
:101F60002343024C8D1044F8253030BD0838014021
:101F70000CB50020019000904048006840F480308B
:101F80003E49086000BF3D48006800F40030009002
:101F90000198401C0190009818B90198B0F5A04F25
:101FA000F1D13648006810F4003F02D001200090C3
:101FB00001E0002000900098012803D130482F490B
:101FC000091D08602D484030006840F080502B49C2
:101FD000403108602B48006840F4404029490860BF
:101FE000264808300068254908310860084600681E
:101FF00040F4004008600846006840F4A0500860C3
:102000001E48006840F080701C49086000BF1B48F3
:10201000006810F0007FFAD01A48006840F4803061
:102020001849086000BF1748406810F4803FFAD094
:102030001448006840F400301249086000BF11489D
:10204000406810F4003FFAD040F205700E49086075
:102050000A480830006820F0030008490831086089
:102060000846006840F00200086000BF03480830DE
:10207000006800F00C000828F8D10CBD00380240C0
:10208000085A400700700040003C024070470000C2
:1020900010B51548006840F47000134908601348F3
:1020A000006840F001001149086000200F49083124
:1020B00008600E4800680E4908400C4908600D4849
:1020C000091D0860081F006820F48020091F0860AF
:1020D000002006490C310860FFF74AFF4FF000600E
:1020E00001498039086010BD88ED00E000380240E9
:1020F000FFFFF6FE10300024704700BFFEE700002F
:102100000FB4084B10B504A902AA039800F01CF8FC
:10211000044602A9002000F0C1F8204610BC5DF87A
:1021200014FB00009D22000802E008C8121F08C12D
:10213000002AFAD170477047002001E001C1121F48
:10214000002AFBD1704700002DE9FF4F89B09B4664
:102150000446002597E0252833D10027641C4E490A
:10216000B84601222378203B02FA03F0084202D04D
:102170000743641CF6E720782E2819D114F8010FC4
:1021800047F004072A280ED06FF02F022078A0F124
:10219000300109290CD808EB880102EB410100EB62
:1021A0000108641CF2E70A98641C50F8048B0A903A
:1021B000207800286BD0642808D0692806D07528BC
:1021C00020D05A460B9990476D1C5BE00A994FF05E
:1021D0000A0901C90A91002804DAC0F100004FF091
:1021E0002D0102E0390504D52B218DF820100121A5
:1021F00003E0F90704D02021F7E78A4608AE0EE095
:102200000021FAE70A994FF00A0901C90A91F7E794
:102210004946FDF7E7FF01F1300106F8011D0028EE
:10222000F6D1ADEB060000F12009780701D44FF09C
:102230000108C84502DDA8EB090000E00020804647
:10224000002706E008A85A46C05D0B9990476D1C10
:102250007F1C5745F6DB04E030205A460B99904727
:102260006D1CB8F10001A8F10108F5DC05E016F8D5
:10227000010B5A460B9990476D1CB9F10001A9F169
:102280000109F4DC641C207800287FF464AF0DB0F1
:102290002846BDE8F08F0000092801000A68531C99
:1022A0000B601070704701B581B00020009001985C
:1022B000009002E00098401E009000980028F9D19C
:1022C0000CBD000001B581B00020009005490198C7
:1022D0004843009002E00098401E009000980028BB
:1022E000F9D10CBDA086010008B5FFF733F8FEF761
:1022F000B7FBFEF703FC0120FEF768FE0120FEF7A6
:1023000005FEFFF727F9FEF78FF84FF6FF70FEF78F
:10231000B1FA21E011490020FFF7A0F90F48007839
:102320000F4908600D4840780E4908600B488078D6
:102330000D4908600846006800900A48036808488C
:102340000AA102680D48FFF7DBFEFEF783FB0024BD
:102350000A492046FEF7E8FADCE7000018000020F2
:102360000C00002010000020140000202564203AFA
:10237000202564203A20256400000000740000201D
:1023800000BFFEE7002000404000000040000000C9
:102390000100000001000000010000000600000034
:1023A000000000000000000000000000000000002D
:1023B000000000000000000000000000000000001D
:1023C000000000000000000000000000000000000D
:1023D00080018001800180018001800180018001F5
:1023E00080018001800180018001000000008001E7
:1023F000800100000000000000000000000000005C
:102400000000CC00CC00CC00CC00CC00CC00000004
:1024100000000000000000000000000000000000BC
:1024200000000000000000000000000000000000AC
:1024300000000000000000000000600C600C600C58
:1024400030063006FE1FFE1F300638071803FE1F39
:10245000FE1F180318038C018C018C010000000082
:102460008000E003F80F9C0E8C1C8C188C009800E8
:10247000F801E007800E801C8C188C189C18B80C92
:10248000F00FE0038000800000000000000000006A
:10249000000000000E181B0C110C11061106110390
:1024A00011039B018E01C038C06C6044604430440D
:1024B00030441844186C0C38000000000000000084
:1024C000E001F0033807180618063003F001F000A9
:1024D000F8009C310E33061E061C061C063FFC73DA
:1024E000F0210000000000000000000000000000DB
:1024F00000000C000C000C000C000C000C00000094
:1025000000000000000000000000000000000000CB
:1025100000000000000000000000000000000000BB
:10252000000200038001C000C000600060003000B5
:1025300030003000300030003000300030006000EB
:102540006000C000C0008001000300020000000025
:1025500020006000C000800180010003000300062D
:10256000000600060006000600060006000600033E
:10257000000380018001C000600020000000000016
:1025800000000000000000000000C000C000D806ED
:10259000F807E001300338070000000000000000E9
:1025A000000000000000000000000000000000002B
:1025B0000000000000000000000080018001800198
:1025C00080018001FC3FFC3F80018001800180018F
:1025D000800100000000000000000000000000007A
:1025E00000000000000000000000000000000000EB
:1025F00000000000000000000000000000000000DB
:102600008001800100010001800000000000000046
:1026100000000000000000000000000000000000BA
:10262000000000000000E007E007000000000000DC
:10263000000000000000000000000000000000009A
:10264000000000000000000000000000000000008A
:10265000000000000000000000000000000000007A
:10266000C000C000000000000000000000000000EA
:10267000000C000C00060006000600030003000327
:102680008003800180018001C000C000C0006000A4
:1026900060000000000000000000000000000000DA
:1026A000E003F007380E180C0C180C180C180C1856
:1026B0000C180C180C180C180C18180C380EF00705
:1026C000E003000000000000000000000000000027
:1026D00000018001C001F0019801880180018001A2
:1026E00080018001800180018001800180018001E2
:1026F0008001000000000000000000000000000059
:10270000E003F80F180C0C180C1800180018000C37
:10271000000600038001C000600030001800FC1FAC
:10272000FC1F00000000000000000000000000008E
:10273000E001F807180E0C0C0C0C000C0006C0038E
:10274000C007000C001800180C180C18180CF8071B
:10275000E003000000000000000000000000000096
:10276000000C000E000F000F800DC00C600C600C00
:10277000300C180C0C0CFC3FFC3F000C000C000C47
:10278000000C00000000000000000000000000003D
:10279000F80FF80F180018000C00EC03FC071C0ED3
:1027A000001C0018001800180C181C0C180EF80754
:1027B000E003000000000000000000000000000036
:1027C000C007F00F381C181818000C00CC03EC0FD1
:1027D0003C0E1C1C0C180C180C18181C380EF0079A
:1027E000E003000000000000000000000000000006
:1027F000FC1FFC1F000C0006000600038003800184
:10280000C001C000E00060006000700030003000D7
:102810003000000000000000000000000000000088
:10282000E003F007380E180C180C180C3806F007E7
:10283000F007180C0C180C180C180C18380CF80FA2
:10284000E0030000000000000000000000000000A5
:10285000E003F007380E1C0C0C180C180C181C1C8C
:10286000381EF81BE0190018000C000C1C0EF807AD
:10287000F001000000000000000000000000000067
:102880000000000000000000000080018001000046
:1028900000000000000000000000000000008001B7
:1028A00080010000000000000000000000000000A7
:1028B0000000000000000000000080018001000016
:1028C0000000000000000000000000000000800187
:1028D00080010001000180000000000000000000F5
:1028E00000000000000000000000000000000010D8
:1028F000001C800FE003F8001800F800E003800FD0
:10290000001C00100000000000000000000000009B
:102910000000000000000000000000000000F81FA0
:10292000000000000000F81F000000000000000090
:102930000000000000000000000000000000000097
:10294000000000000000000000000000000008007F
:102950003800F001C007001F0018001FC007F00179
:102960003800080000000000000000000000000027
:10297000E003F80F180C0C180C180018000C0006D7
:1029800000038001C000C000C00000000000C000C3
:10299000C000000000000000000000000000000077
:1029A0000000E00718180420C229224A11440944F3
:1029B0000944094409221113E20C024004201818AA
:1029C000E007000000000000000000000000000020
:1029D00080038003C006C006C006600C600C30187F
:1029E00030183018F83FF83F1C700C600C6006C0BF
:1029F00006C0000000000000000000000000000011
:102A0000FC03FC0F0C0C0C180C180C180C0CFC071D
:102A1000FC0F0C180C300C300C300C300C18FC1F58
:102A2000FC070000000000000000000000000000A3
:102A3000C007F01F38381C300C7006600600060016
:102A4000060006000600060006600C701C30F01F31
:102A5000E00700000000000000000000000000008F
:102A6000FE03FE0F060E0618061806300630063066
:102A7000063006300630063006180618060EFE0F21
:102A8000FE03000000000000000000000000000045
:102A9000FC3FFC3F0C000C000C000C000C00FC1F69
:102AA000FC1F0C000C000C000C000C000C00FC3F88
:102AB000FC3F0000000000000000000000000000DB
:102AC000F83FF83F18001800180018001800F81F09
:102AD000F81F180018001800180018001800180037
:102AE00018000000000000000000000000000000CE
:102AF000E00FF83F3C780E6006E007C003000300DB
:102B000003FE03FE03C007C006C00EC03CF0F83F42
:102B1000E00F0000000000000000000000000000C6
:102B20000C300C300C300C300C300C300C30FC3FC6
:102B3000FC3F0C300C300C300C300C300C300C30B6
:102B40000C30000000000000000000000000000049
:102B5000800180018001800180018001800180016D
:102B6000800180018001800180018001800180015D
:102B700080010000000000000000000000000000D4
:102B80000006000600060006000600060006000615
:102B90000006000600060006180618063807F003AF
:102BA000E001000000000000000000000000000044
:102BB00006300618060C060606038601C6006600E7
:102BC0007600DE008E0106030606060C06180630A7
:102BD000066000000000000000000000000000008F
:102BE0001800180018001800180018001800180025
:102BF0001800180018001800180018001800F81F16
:102C0000F81F0000000000000000000000000000AD
:102C10000EE01EF01EF01EF036D836D836D836D864
:102C200066CC66CC66CCC6C6C6C6C6C6C6C686C395
:102C300086C300000000000000000000000000004B
:102C40000C301C303C303C306C306C30CC30CC30F4
:102C50008C310C330C330C360C360C3C0C3C0C38E1
:102C60000C30000000000000000000000000000028
:102C7000E007F81F1C380E70066003C003C003C0D5
:102C800003C003C003C003C006600E701C38F81FE9
:102C9000E00700000000000000000000000000004D
:102CA000FC0FFC1F0C380C300C300C300C300C18A6
:102CB000FC1FFC070C000C000C000C000C000C00AE
:102CC0000C000000000000000000000000000000F8
:102CD000E007F81F1C380E70066003E003C003C055
:102CE00003C003C003C007E006630E3F1C3CF83F6F
:102CF000E0F700C00000000000000000000000003D
:102D0000FE0FFE1F06380630063006300638FE1F5E
:102D1000FE0706030606060C0618061806300630DF
:102D2000066000000000000000000000000000003D
:102D3000E003F80F1C0C0C180C180C001C00F80316
:102D4000E00F001E0038063006300E301C1CF80F55
:102D5000E00700000000000000000000000000008C
:102D6000FE7FFE7F80018001800180018001800163
:102D7000800180018001800180018001800180014B
:102D800080010000000000000000000000000000C2
:102D90000C300C300C300C300C300C300C300C3053
:102DA0000C300C300C300C300C300C301818F81F74
:102DB000E00700000000000000000000000000002C
:102DC00003600630063006300C180C180C18180C6E
:102DD000180C380E30063006700760036003C0011F
:102DE000C001000000000000000000000000000022
:102DF0000360C361C361C3616633663366336633A0
:102E0000663366336C1B6C1B6C1B2C1A3C1E380E15
:102E1000380E00000000000000000000000000006C
:102E20000FE00C7018303018700C600EC007800373
:102E30008003C003E006700C301C18180C300E60C4
:102E400007E000000000000000000000000000009B
:102E500003C006600C301C383818300C6006E007E0
:102E6000C003800180018001800180018001800118
:102E700080010000000000000000000000000000D1
:102E8000FC7FFC7F006000300018000C000600038F
:102E90008001C0006000300018000C000600FE7FBA
:102EA000FE7F0000000000000000000000000000A5
:102EB000E003E0036000600060006000600060000C
:102EC0006000600060006000600060006000600002
:102ED0006000600060006000E003E00300000000AC
:102EE00030003000600060006000C000C000C00022
:102EF000C00180018001800100030003000300067F
:102F000000060000000000000000000000000000BB
:102F1000E003E003000300030003000300030003D9
:102F20000003000300030003000300030003000389
:102F30000003000300030003E003E00300000000BF
:102F40000000C001C001600360036003300630066A
:102F5000180C180C00000000000000000000000029
:102F60000000000000000000000000000000000061
:102F70000000000000000000000000000000000051
:102F80000000000000000000000000000000000041
:102F9000FFFFFFFF00000000000000000000000035
:102FA0000C000C000C000C000C000C0000000000D9
:102FB0000000000000000000000000000000000011
:102FC0000000000000000000000000000000000001
:102FD00000000000000000000000F003F8071C0CD7
:102FE0000C0C000FF00FF80C0C0C0C0C1C0FF80F55
:102FF000F0180000000000000000000000000000C9
:1030000018001800180018001800D803F80F380C22
:10301000181818181818181818181818380CF80F45
:10302000D8030000000000000000000000000000C5
:1030300000000000000000000000C003F007300E98
:10304000180C1800180018001800180C300EF007A3
:10305000C0030000000000000000000000000000AD
:1030600000180018001800180018C01BF01F301CB2
:10307000181818181818181818181818301CF01FD5
:10308000C01B000000000000000000000000000065
:1030900000000000000000000000C003F00F300C32
:1030A0001818F81FF81F180018003818301CF00FF7
:1030B000C007000000000000000000000000000049
:1030C000800FC00FC000C000C000F007F007C000B4
:1030D000C000C000C000C000C000C000C000C000F0
:1030E000C000000000000000000000000000000020
:1030F00000000000000000000000E00DF80F180EB6
:103100000C0C0C0C0C0C0C0C0C0C0C0C180EF80F02
:10311000E00D000C0C0C1C06F807F001000000008C
:1031200018001800180018001800D807F80F381CED
:10313000181818181818181818181818181818180F
:10314000181800000000000000000000000000004F
:10315000C000C000000000000000C000C000C000AF
:10316000C000C000C000C000C000C000C000C0005F
:10317000C00000000000000000000000000000008F
:10318000C000C000000000000000C000C000C0007F
:10319000C000C000C000C000C000C000C000C0002F
:1031A000C000C000C000C000F800780000000000AF
:1031B0000C000C000C000C000C000C0C0C060C039A
:1031C0008C01CC006C00FC009C018C030C030C06F1
:1031D0000C0C0000000000000000000000000000D7
:1031E000C000C000C000C000C000C000C000C000DF
:1031F000C000C000C000C000C000C000C000C000CF
:10320000C0000000000000000000000000000000FE
:10321000000000000000000000007C3CFF7EC7E3CF
:1032200083C183C183C183C183C183C183C183C17E
:1032300083C100000000000000000000000000004A
:10324000000000000000000000009807F80F381C84
:1032500018181818181818181818181818181818EE
:10326000181800000000000000000000000000002E
:1032700000000000000000000000C003F00F300C50
:10328000181818181818181818181818300CF00FE3
:10329000C00300000000000000000000000000006B
:1032A00000000000000000000000D803F80F380CF8
:1032B000181818181818181818181818380CF80FA3
:1032C000D8031800180018001800180000000000AB
:1032D00000000000000000000000C01BF01F301CB8
:1032E000181818181818181818181818301CF01F63
:1032F000C01B00180018001800180018000000007B
:1033000000000000000000000000B007F0037000A3
:10331000300030003000300030003000300030002D
:10332000300000000000000000000000000000006D
:1033300000000000000000000000E003F003380E71
:10334000180C3800F003C007000C180C380EF007FA
:10335000E00300000000000000000000000000008A
:1033600000008000C000C000C000F007F007C000EF
:10337000C000C000C000C000C000C000C000C00746
:1033800080070000000000000000000000000000B6
:10339000000000000000000000001818181818189D
:1033A000181818181818181818181818381CF01F9A
:1033B000E019000000000000000000000000000014
:1033C000000000000000000000000C18180C180C91
:1033D000180C300630063006600360036003C0013D
:1033E000C00100000000000000000000000000001C
:1033F00000000000000000000000C141C141C361A5
:103400006363636363633636363636361C1C1C1CB6
:103410001C1C000000000000000000000000000074
:10342000000000000000000000001C38381C300CB8
:10343000600660036003600360036006300C381CA4
:103440001C38000000000000000000000000000028
:103450000000000000000000000018303018301894
:103460007018600C600CE00CC006C006800380037E
:10347000800380018001C001F000700000000000A6
:1034800000000000000000000000FC1FFC1F000CFA
:10349000000600038001C000600030001800FC1F1F
:1034A000FC1F000000000000000000000000000001
:1034B00000038001C000C000C000C000C000C00008
:1034C00060006000300060004000C000C000C0002C
:1034D000C000C000C0008001000300000000000028
:1034E00080018001800180018001800180018001D4
:1034F00080018001800180018001800180018001C4
:1035000080018001800180018001800100000000B5
:103510006000C000C0018001800180018001800145
:103520000003000300060003000180018001800108
:10353000800180018001C0006000000000000000E8
:103540000000000000000000000000000000F0107B
:10355000F81F080F0000000000000000000000003D
:10356000000000000000000000000000000000005B
:10357000000000000000000000000000000000004B
:1035800000000000000000000020002000200020BB
:1035900000200020002000000020000000000000AB
:1035A000005000500050000000000000000000002B
:1035B0000000000000000000000900090012007F68
:1035C0000012007F00120024002400000000001000
:1035D00000380054005000500038001400540054CB
:1035E0000038001000000000803000490049004A07
:1035F000C032200520092009C01000000000000092
:10360000000C0012001200140018002500230023F3
:10361000801D00000000000000400040004000004D
:10362000000000000000000000000000000000009A
:1036300000080010001000200020002000200020C2
:1036400000200010001000000040002000200010AA
:1036500000100010001000100010002000200000DA
:10366000002000700020005000000000000000005A
:10367000000000000000000000000000000800083A
:10368000007F0008000800000000000000000000AB
:10369000000000000000000000000000000000002A
:1036A000002000200040000000000000000000009A
:1036B000000000700000000000000000000000009A
:1036C00000000000000000000000000000000000FA
:1036D000002000000000000000100010001000207A
:1036E00000200020002000400040000000000000FA
:1036F0000010002800440044004400440044002816
:103700000010000000000000001000300050001009
:103710000010001000100010001000000000000059
:103720000030004800440004000800100020004061
:10373000007C000000000000003000480004000889
:1037400000100008004400480030000000000000A5
:10375000000800180018002800280048007C000815
:103760000008000000000000003C00200040007045
:103770000048000400440048003000000000000041
:103780000018002400400050006800440044002855
:103790000010000000000000007C00040008001081
:1037A0000010001000200020002000000000000099
:1037B00000100028004400280010002800440028C1
:1037C0000010000000000000001000280044004429
:1037D000002C00140004004800300000000000002D
:1037E00000000000002000000000000000000000B9
:1037F0000020000000000000000000000020000089
:103800000000000000000000002000200040000038
:1038100000000004000800300040003000080004F0
:10382000000000000000000000000000007C00001C
:103830000000007C0000000000000000000000000C
:103840000000004000200018000400180020004084
:103850000000000000000000003800640044000484
:103860000008001000100000001000000000000020
:10387000800F4010A02EA0512051205120512053E4
:10388000C04D202040100000000800140014001457
:103890000022003E00220041004100000000000024
:1038A000003C002200220022003C002200220022D4
:1038B000003C000000000000000E0011002100206C
:1038C0000020002000210011000E00000000000078
:1038D000003C0022002100210021002100210022C3
:1038E000003C000000000000003E002000200020FE
:1038F000003E002000200020003E000000000000EC
:10390000003E002000200020003C0020002000207D
:103910000020000000000000000E00110021002027
:103920000027002100210011000E0000000000000F
:103930000021002100210021003F00210021002161
:1039400000210000000000000020002000200020D6
:1039500000200020002000200020000000000000C7
:103960000008000800080008000800080048004897
:103970000030000000000000002200240028002881
:10398000003800280024002400220000000000006D
:103990000020002000200020002000200020002027
:1039A000003E000000000000802080318031803126
:1039B000802A802A802A802A8024000000000000BB
:1039C00000210031003100290029002500230023B7
:1039D0000021000000000000000C00120021002166
:1039E0000021002100210012000C00000000000056
:1039F000003C002200220022003C00200020002089
:103A00000020000000000000000C00120021002136
:103A10000021002100210016000D0001000000001F
:103A2000003E002100210021003E00240022002150
:103A30008020000000000000001C00220022002066
:103A4000001C000200220022001C000000000000F8
:103A5000003E0008000800080008000800080008F0
:103A600000080000000000000021002100210021CA
:103A70000021002100210012000C000000000000C5
:103A80000041004100220022002200140014001412
:103A900000080000000000004044404A402A802AFC
:103AA000802A802A802A802A00110000000000005D
:103AB0000041002200140014000800140014002229
:103AC000004100000000000000410022002200141C
:103AD00000080008000800080008000000000000BE
:103AE000007E0002000400080010001000200040CA
:103AF000007E0000000000000030002000200020B8
:103B000000200020002000200020002000200000D5
:103B10000040004000200020002000200020001075
:103B200000100000000000000060002000200020C5
:103B300000200020002000200020002000200000A5
:103B400000100028002800280044000000000000A9
:103B50000000000000000000000000000000000065
:103B6000000000000000000000000000007E004097
:103B70000020000000000000000000000000000025
:103B800000000000000000000000000000380044B9
:103B90000004003C00440044003C00000000000021
:103BA00000400040005800640044004400440064A9
:103BB0000058000000000000000000000030004835
:103BC00000400040004000480030000000000000BD
:103BD000000400040034004C004400440044004C45
:103BE0000034000000000000000000000038004425
:103BF0000044007C00400044003800000000000049
:103C00000060004000E000400040004000400040F4
:103C10000040000000000000000000000034004CE4
:103C2000004400440044004C003400040044000000
:103C30000040004000580064004400440044004438
:103C40000044000000000000004000000040004070
:103C50000040004000400040004000000000000024
:103C60000040000000400040004000400040004094
:103C7000004000400040000000400040004800506C
:103C800000600050005000480048000000000000A4
:103C90000040004000400040004000400040004024
:103CA0000040000000000000000000000052006D15
:103CB0000049004900490049004900000000000097
:103CC0000000000000580064004400440044004428
:103CD0000044000000000000000000000038004424
:103CE000004400440044004400380000000000008C
:103CF00000000000005800640044004400440064D8
:103D00000058004000400000000000000034004C5B
:103D1000004400440044004C00340004000400004F
:103D200000000000005000600040004000400040E3
:103D300000400000000000000000000000300048CB
:103D40000040003000080048003000000000000083
:103D50000040004000E000400040004000400040C3
:103D6000006000000000000000000000004400446B
:103D7000004400440044004C0034000000000000F7
:103D8000000000000044004400280028002800280B
:103D90000010000000000000000000000049004981
:103DA000005500550055005500220000000000009D
:103DB000000000000044002800280010002800280F
:103DC0000044000000000000000000000044004427
:103DD000002800280028001000100010001000002B
:103DE00000000000007800080010002000200040C3
:103DF00000780000000000000010002000200020DB
:103E000000200040002000200020002000200000B2
:103E100000200020002000200020002000200020A2
:103E20000020002000200000004000200020002092
:103E300000200010002000200020002000200000B2
:103E400000000000000000740058000000000000A6
:103E50000000000000000000000000700050005052
:103E600000500050005000500070000000000000A2
:103E70000000000000000000000000000000000042
:103E80000000000000000000000000001000100012
:103E900010001000100010000000100000000000D2
:103EA000000000002800280028000000000000009A
:103EB00000000000000000000000000014001400DA
:103EC0003E00140028007C002800280000000000AC
:103ED0000000100038005400500038001400140096
:103EE0005400380010000000000000004400A8004A
:103EF000A800500014001A002A002400000000004E
:103F0000000000002000500050002000E800980051
:103F100098006000000000000000000080008000A9
:103F20008000000000000000000000000000000011
:103F300000000000400080008000800080008000C1
:103F40008000800080000000000000008000400031
:103F500040004000400040004000400040000000A1
:103F6000000000004000E0004000A0000000000051
:103F70000000000000000000000000000000000041
:103F800020002000F80020002000000000000000B9
:103F90000000000000000000000000000000000021
:103FA0000000400040000000000000000000000091
:103FB000000000000000C000000000000000000041
:103FC00000000000000000000000000000000000F1
:103FD0000000400000000000000000002000200061
:103FE00020004000400080008000800000000000B1
:103FF0000000000060009000900090009000900091
:104000009000600000000000000000002000600040
:10401000A000200020002000200020000000000060
:104020000000000060009000100010002000400020
:104030008000F00000000000000000006000900020
:1040400010006000100010009000600000000000F0
:104050000000000010003000500050009000F800F8
:104060001000100000000000000000007000400080
:104070008000E000100010009000600000000000D0
:1040800000000000600090008000A000D0009000C0
:10409000900060000000000000000000F000100030
:1040A00020002000200040004000400000000000F0
:1040B0000000000060009000900060009000900000
:1040C0009000600000000000000000006000900010
:1040D0009000B00050001000900060000000000050
:1040E0000000000000000000400000000000000090
:1040F0000000400000000000000000000000000080
:1041000040000000000000000000400040000000EF
:10411000000000000000000010006000800060004F
:10412000100000000000000000000000000000007F
:104130000000F0000000F00000000000000000009F
:10414000000000000000000080006000100060001F
:1041500080000000000000000000000060009000EF
:10416000100020004000400000004000000000005F
:10417000000000001C0022005B00A500A500A500B7
:10418000A5009E004100000000000000200050003B
:1041900050005000500070008800880000000000AF
:1041A00000000000F00088008800F000880088000F
:1041B0008800F0000000000000000000380044000B
:1041C000840080008000840044003800000000006B
:1041D00000000000E000900088008800880088004F
:1041E0009000E0000000000000000000F8008000E7
:1041F0008000F800800080008000F80000000000CF
:1042000000000000780040004000700040004000C6
:1042100040004000000000000000000038004400A2
:10422000840080009C0084004400380000000000EE
:1042300000000000880088008800F80088008800DE
:10424000880088000000000000000000800080005E
:10425000800080008000800080008000000000005E
:10426000000000001000100010001000100090006E
:104270009000600000000000000000008800900036
:10428000A000E000A0009000900088000000000066
:10429000000000008000800080008000800080001E
:1042A0008000F00000000000000000008200C60056
:1042B000C600AA00AA00AA00AA00920000000000FE
:1042C000000000008400C400A400A4009400940036
:1042D0008C00840000000000000000003000480056
:1042E0008400840084008400480030000000000046
:1042F00000000000F000880088008800F0008000C6
:104300008000800000000000000000003000480035
:1043100084008400840084005800340004000000FD
:10432000000000007800440044007800500048007D
:1043300044004200000000000000000070008800FF
:1043400080007000080088008800700000000000F5
:1043500000000000F80020002000200020002000C5
:104360002000200000000000000000008400840005
:1043700084008400840084004800300000000000B5
:1043800000000000880088005000500050005000DD
:104390005000200000000000000000009200AA0071
:1043A000AA00AA00AA00AA00AA0044000000000077
:1043B0000000000084004800480030003000480041
:1043C0004800840000000000000000008800500049
:1043D00050002000200020002000200000000000ED
:1043E00000000000F800080010002000200040003D
:1043F0008000F8000000000000000000C000800005
:10440000800080008000800080008000800000002C
:10441000000000008000800040004000400040009C
:10442000200020000000000000000000C00040004C
:1044300040004000400040004000400040000000BC
:10444000000000004000A000A000A000000000004C
:10445000000000000000000000000000000000005C
:10446000000000000000000000000000F800000054
:10447000000000008000400000000000000000007C
:10448000000000000000000000000000000000002C
:10449000E00010007000900090007000000000002C
:1044A0000000000080008000A000D000900090007C
:1044B000D000A0000000000000000000000000008C
:1044C000600090008000800090006000000000000C
:1044D00000000000100010005000B000900090009C
:1044E000B0005000000000000000000000000000CC
:1044F00060009000F000800090006000000000006C
:1045000000000000C0008000C0008000800080002B
:10451000800080000000000000000000000000009B
:104520005000B00090009000B0005000100000005B
:104530000000000080008000A000D00090009000EB
:1045400090009000000000000000000080000000CB
:10455000800080008000800080008000000000005B
:1045600000000000800000008000800080008000CB
:1045700080008000800000000000000080008000BB
:104580009000A000C000A00090009000000000007B
:10459000000000008000800080008000800080001B
:1045A000800080000000000000000000000000000B
:1045B000A600DA0092009200920092000000000033
:1045C0000000000000000000A000D000900090005B
:1045D00090009000000000000000000000000000BB
:1045E00060009000900090009000600000000000CB
:1045F0000000000000000000A000D000900090002B
:10460000D000A000800000000000000000000000BA
:104610005000B00090009000B0005000100000006A
:104620000000000000000000A000C000800080002A
:10463000800080000000000000000000000000007A
:10464000E0009000400020009000600000000000AA
:104650000000000080008000C0008000800080001A
:104660008000C0000000000000000000000000000A
:104670009000900090009000B000500000000000FA
:10468000000000000000000088008800500050007A
:1046900050002000000000000000000000000000AA
:1046A0009200AA00AA00AA00AA004400000000008C
:1046B00000000000000000008800500020002000E2
:1046C0005000880000000000000000000000000012
:1046D0008800500050005000200020002000000002
:1046E0000000000000000000F0001000200040006A
:1046F0008000F0000000000000000000C00080000A
:1047000080008000000080008000800080000000A9
:104710000000000080008000800080008000800099
:10472000800080008000000000000000C000400009
:1047300040004000200040004000400040000000D9
:1047400000000000000000000000E800B0000000D1
:104750000000000000000000000000000000E00079
:10476000A000A000A000A000A000E0000000000049
:1047700000000000000000000000000000004000F9
:104780004000400040004000400000004000A00009
:10479000A000A000000000000000000000000000D9
:1047A00024002400FE004800FC00480048003800B7
:1047B0005400500038001400140054003800440025
:1047C000A800A800500014001A002A0024001000BD
:1047D00028002800100074004C004C00300010002D
:1047E00010001000000000000000000000000800A1
:1047F0001000100010001000100010000800100041
:104800000800080008000800080008001000000068
:104810000000240018003C001800240000000000E4
:104820000000100010007C001000100000000000CC
:104830000000000000000000080008001000000058
:104840000000000000003C0000000000000000002C
:104850000000000000000000000018001800080020
:1048600008000800100010002000200020001800A0
:104870002400240024002400240024001800080040
:104880001800280008000800080008000800380088
:104890004400000004000800100020007C00180004
:1048A0002400040018000400040024001800040080
:1048B0000C001400240044007E00040004003C00AE
:1048C0002000200038000400040024001800180014
:1048D00024002000380024002400240018003C009C
:1048E0000400080008000800100010001000180064
:1048F00024002400180024002400240018001800BC
:104900002400240024001C000400240018000000DF
:104910000000100000000000100000000000000077
:104920000000080000000000080010000000000067
:10493000000004001800200018000400000000001F
:10494000000000003C0000003C00000000000000EF
:1049500000002000180004001800200000001800CB
:1049600024000400080010001000000010003C00AB
:1049700042009900A500A5009D00420038003800C3
:104980004400440044007C0044004400440078009B
:1049900044004400780044004400440078001C00B7
:1049A0002200420040004000420022001C00700033
:1049B00048004400440044004400480070007C006B
:1049C000400040007C004000400040007C003C0073
:1049D00020002000380020002000200020001C00C3
:1049E0002200420040004E00420022001C00440011
:1049F000440044007C004400440044004400100093
:104A00001000100010001000100010001000040032
:104A100004000400040004002400240018004400E2
:104A2000480050007000500048004800440020003A
:104A30002000200020002000200020003C008200F8
:104A4000C600C600AA00AA00AA00AA00920042005E
:104A50006200520052004A004A004600420018001C
:104A60002400420042004200420024001800780066
:104A7000440044004400780040004000400018001A
:104A8000240042004200420042002C001A0078003C
:104A900044004400780050004800440042003800C0
:104AA00044004000380004004400440038007C000A
:104AB0001000100010001000100010001000420044
:104AC000420042004200420042002400180044001C
:104AD0004400280028002800280028001000920028
:104AE000AA00AA00AA00AA00AA00AA004400420044
:104AF0002400240018001800240024004200440070
:104B000028002800100010001000100010007C0089
:104B10000400080010001000200040007C001C0071
:104B20001000100010001000100010001C001000F9
:104B300010000800080008000800040004001C0021
:104B40000400040004000400040004001C00100021
:104B500028004400000000000000000000000000E9
:104B60000000000000000000000000000000200025
:104B70001000100000000000000000000000000015
:104B80000000180004001C00240024001C00200069
:104B900020002800340024002400340028000000F5
:104BA0000000180024002000200024001800040049
:104BB000040014002C00240024002C001400000029
:104BC0000000180024003C00200024001800000011
:104BD0001800100010001800100010001000000055
:104BE00018002400240018000400240018002000ED
:104BF0002000280034002400240024002400100099
:104C0000000010001000100010001000100008003C
:104C1000000008000800080008002800100020001C
:104C20002000240028003000280024002400100068
:104C30001000100010001000100010001000000004
:104C40000000A600DA00920092009200920000009C
:104C50000000280034002400240024002400000068
:104C60000000180024002400240024001800000084
:104C7000280034002400380020002000200000001C
:104C800014002C0024001C00040004000400000098
:104C900000002C0030002000200020002000000038
:104CA0000000180024001000080024001800000074
:104CB0001000380010001000100010001800000054
:104CC000000024002400240024002C001400000014
:104CD00000004400440028002800280010000000C4
:104CE00000009200AA00AA00AA00AA004400000046
:104CF00000004400280010001000280044000000BC
:104D000028002800280010001000100010000000EB
:104D100000003C0004000800100020003C000000DF
:104D20000800100010002000100010000800100003
:104D30001000100010001000100010001000000003
:104D4000100008000800040008000800100000001F
:104D500000000000600092000C0000000000FF0056
:104D6000FF00FF00FF00FF00FF00FF00FF0000004A
:104D7000904D000800000020740000002821000869
:104D8000044E0008740000201C04000038210008B4
:104D90000A004100010000000000000000000000C7
:104DA0000000000000000000000000000000000003
:104DB00000180240001802400000024000000000FD
:104DC0009E230008100018006E3500080C000C002F
:104DD0006E3E000808000C006E470008080008003E
:104DE0000000FFFF000000D00000000000000000F5
:104DF0000000000000A00000000000000000000013
:044E000000000000AE
:04000005080001AD41
:00000001FF
