:020000040800F2
:10000000C0040020C10100082D1C000821100008B8
:10001000291C000821070008BD2700080000000077
:10002000000000000000000000000000D1230008D4
:100030002507000800000000B51C00083125000855
:10004000DB010008DB010008DB010008DB01000820
:10005000DB010008DB010008910B0008DB01000850
:10006000DB010008DB010008DB010008DB01000800
:10007000DB010008DB010008DB010008DB010008F0
:10008000DB010008DB010008DB010008DB010008E0
:10009000DB010008DB010008DB010008DB010008D0
:1000A000DB010008DB010008DB010008DB010008C0
:1000B000DB010008ED250008DB010008DB0100087A
:1000C000DB010008DB010008DB010008DB010008A0
:1000D000DB010008DB010008DB010008DB01000890
:1000E000DB010008DB010008DB010008DB01000880
:1000F000DB010008DB010008DB010008DB01000870
:10010000DB010008DB010008DB010008DB0100085F
:10011000DB010008DB010008DB010008DB0100084F
:10012000DB010008DB010008DB010008DB0100083F
:10013000DB010008DB010008DB010008DB0100082F
:10014000DB010008DB010008DB010008DB0100081F
:10015000DB010008DB010008DB010008DB0100080F
:10016000DB010008DB010008DB010008DB010008FF
:10017000DB010008DB010008DB010008DB010008EF
:10018000DB010008DB010008DB010008DB010008DF
:10019000DB010008DB010008DB010008DB010008CF
:1001A000DB010008DB010008DB010008DFF80CD0F0
:1001B00000F014FA00480047F5300008C0040020A1
:1001C0000648804706480047FEE7FEE7FEE7FEE7F1
:1001D000FEE7FEE7FEE7FEE7FEE7FEE7352500085F
:1001E000AD01000830B50B46014600202022012455
:1001F00009E021FA02F59D4205D303FA02F5491BF5
:1002000004FA02F52844151EA2F10102F1DC30BD0A
:100210002DE9F05F0546002092469B46884606463B
:10022000814640241BE0284641464746224600F0CE
:10023000F6F953465A46C01A914110D31146184652
:10024000224600F0DDF92D1A67EB01084F462246E1
:100250000120002100F0D4F917EB00094E41201EC7
:10026000A4F10104DFDC484631462A464346BDE896
:10027000F09F2DE9FE4F804681EA0300C00F0C4637
:10028000009021F0004123F00045B8EB0200A941A5
:1002900005D24046214690461C460B46024623F0B6
:1002A0000040104304D14046214603B0BDE8F08F22
:1002B000270DC7F30A00C3F30A510290401A0190B8
:1002C000402866DAC3F3130040F4801B009892467E
:1002D00020B10023D2EB030A63EB0B0B01985946C4
:1002E000C0F14002504600F08BF906460D465046DC
:1002F0005946019A00F0A3F910EB0800614100246F
:1003000087EA115284EAE7731A433BD0009A3AB362
:10031000019A012A4FEA075210DC001B61EB02012F
:100320004FF0004202EA0752CDE90042001C41F5BD
:10033000801132462B4600F0A1F9B6E7001B61EBB5
:100340000201001C41F5801300185B412018A2F542
:10035000001747EB030140EAD570B6196D4111E073
:100360006D084FEA360645EAC0754FEA0752001B92
:1003700061EB0201001C41F5801149084FEA300091
:100380000019514132462B4603B0BDE8F04F00F052
:1003900068B90098012240000023D0EB020263EB11
:1003A000E073009821464FEAE074B8EB000061EB7F
:1003B0000401E9E783F000435BE781F0004158E77F
:1003C0002DE9FE4F81EA030404F0004421F00041CE
:1003D00000944FF0000B23F0004350EA010402D0D8
:1003E00052EA030404D10020014603B0BDE8F08FB7
:1003F000C3F30A54C1F30A552C44A4F2F334019414
:10040000A0FB0254C1F3130141F48011C3F31303A1
:1004100043F4801301FB024400FB034E840A970A55
:1004200044EA815447EA8357A4FB076802958D0A82
:1004300005FB07854FEA932C04FB0C542705029D0E
:100440004FEA065847EA1637B5EB08056EEB070C7E
:10045000870E920E47EA811742EA8312A7FB020138
:10046000B6EB0B0164EB00042B0D43EA0C335E1872
:1004700044EB1C50DA465146E7FB0201C5F3130476
:100480004FEA0B3343EA14534FEA0432019C43EA28
:100490000603A4F10C040294009CCDE900B400F022
:1004A000EDF8A2E72DE9F04D81EA030404F0004BDA
:1004B00021F0004514464FF0000A23F0004150EAB5
:1004C000050220D054EA01021DD0C5F30A570246A6
:1004D000C5F31303C1F31300C1F30A5640F48015AA
:1004E00043F48013A7EB0608101BD64608F2FD382C
:1004F00073EB050002D308F1010801E092185B419B
:10050000B8F1000F03DA00200146BDE8F08D0020AD
:100510004FF48011064684460EE0171B73EB050767
:1005200005D3121B63EB050306434CEA010C490893
:100530004FEA300092185B4150EA0107EDD152EAD0
:10054000030012D082EA040083EA0501084303D1C4
:1005500000224FF0004308E0101BAB4102D2012201
:10056000002302E06FF0010253101AEB06004CEB7F
:10057000085110EB0A0041EB0B01BDE8F04D00F013
:1005800070B8C1F30A52C1F3130140F2FF3341F4D2
:1005900080119A4202DA00200146704740F233434C
:1005A0009A42A2F2334202DC524200F038B800F024
:1005B00027B8000030B5002904DB4FF0004440426A
:1005C00064EB0101002B04DB4FF00044524264EB6A
:1005D0000303994208BF904230BD0000064C074D0E
:1005E00006E0E06840F0010394E807009847103403
:1005F000AC42F6D3FFF7DEFDDC5D0008FC5D0008D1
:10060000202A04DB203A00FA02F1002070479140D2
:10061000C2F1200320FA03F3194390407047202AC7
:1006200004DB203A21FA02F00021704721FA02F39C
:10063000D040C2F120029140084319467047202A59
:1006400006DBCB17203A41FA02F043EAE07306E0FA
:1006500041FA02F3D040C2F120029140084319460A
:10066000704710B5002B08DA401C41F100019218C8
:100670005B411A4301D120F0010010BD2DE9F04D7E
:1006800092469B4611B1B1FA81F202E0B0FA80F2D3
:1006900020329046FFF7B4FF04460F4640EA0A00B6
:1006A00041EA0B0153465A46084303D120463946D6
:1006B000BDE8F08D114653EA010015D0C8F14002A3
:1006C0005046FFF7ACFF05460E4650465946424697
:1006D000FFF796FF084301D0012000E0002005430A
:1006E00046EAE0762C4337430A984FEA4453A0EB9E
:1006F00008004FEAD4240A304FF0000244EA47547D
:100700004FEAD72502D500200146D1E7010510198F
:100710006941DDE9084500196941BDE8F04DA0E7F0
:1007200000BFFEE77047000003460621062212487C
:10073000018812480288A3B1012B1AD132B9A1F560
:100740006E40EE3800D170470120FCE739B9A2F5C0
:100750006E40EE3801D10120F5E70020F3E7AB2031
:10076000F1E709B90020EEE70AB90120EBE7AB2079
:10077000E9E70020E7E700000080000800C000086B
:1007800010B509240221102000F05CFA0446092C5F
:1007900001D0204610BD0021074800F0C1FA0446F0
:1007A000092C01D02046F5E70221182000F04AFA72
:1007B00004462046EEE70000008000082DE9F047DF
:1007C0004FF0060A062600250027A8464FF0FF39FD
:1007D0007648B0F800A0764806885FEA0A0078D02C
:1007E000A0F56E40EE382CD0A0F58850113871D1AC
:1007F0004EB90221102000F025FA0446092C1FD022
:100800002046BDE8F087A6F56E40EE3811D10221F2
:10081000102000F017FA0446092C01D02046F0E71A
:100820000021634800F07CFA0446092C08D02046D9
:10083000E7E7FFF7A5FF0446092C01D02046E0E7D3
:10084000B1E07EBB002522E05848C088594931F804
:100850001510884201D10FFA85F94D4515D055493B
:1008600031F81500544900F01BF98046B8F1010F2A
:100870000BD0504931F815004F49098800F040F974
:100880000746092F01D03846BBE7681C85B2032D07
:10089000DADB0021454800F043FA0446092C02D077
:1008A0002046AEE708E00221182000F0CBF904460C
:1008B000092C20D02046A4E7A6F57F40FF3813D1AD
:1008C0000221182000F0BEF90446092C03D020466E
:1008D00097E711E05FE00021344800F021FA044678
:1008E000092C08D020468CE7FFF74AFF0446092C64
:1008F00001D0204685E756E036B9FFF741FF0446B0
:10090000092C47D020467CE7A6F57F40FF3808D168
:100910000221182000F096F90446092C3AD020460E
:100920006FE7002522E02248C088224931F81510DF
:10093000884201D10FFA85F94D4515D01D4931F88E
:1009400015001D4900F0ACF88046B8F1010F0BD03E
:10095000184931F815001849098800F0D1F8074600
:10096000092F01D038464CE7681C85B2032DDADB2D
:1009700000210F4800F0D4F90446092C01D020468C
:100980003FE70221102000F05DF90446092C01D058
:10099000204636E707E0FFF7F3FE0446092C01D0B6
:1009A00020462EE700BF00BF09202AE7008000088C
:1009B00000C00008060000203C0000202DE9F84F90
:1009C000074689460925DFF8C8A000200090804628
:1009D000002400268346FFF7A7FE8046B8F1010FEA
:1009E00003D100BF182000900AE0B8F1000F04D135
:1009F000DFF8A0A01020009002E0AB20BDE8F88F47
:100A00004EF6EE61504600F08BF90546092D01D0F7
:100A10002846F3E74946384600F072F80646092EA4
:100A200001D03046EAE700241CE01B4830F81400EF
:100A3000B84215D0184931F81400184900F030F8C0
:100A40008346BBF1010F0BD0134931F81400134951
:100A5000098800F055F80646092E01D03046CDE74A
:100A6000601C84B2032CE0DB0221009800F0EAF85D
:100A70000546092D01D02846C0E70021504600F068
:100A80004FF90546092D01D02846B7E72846B5E7B6
:100A90000080000800C00008060000203C00002084
:100AA0002DE9F04706460F46002445F255584FF011
:100AB0000109124DAA460020FFF736FE0446AB2C72
:100AC00001D1BDE8F0870D4800EB843A601C0B496A
:100AD000891E01EB80350AE0B5F80080B04505D1EC
:100AE00035F8020C38804FF0000904E02D1F0AF1A0
:100AF00002008542F0D800BF4846E2E700800008C7
:100B00002DE9F0470646884609270025154CDFF8F1
:100B100058900120FFF708FE0546AB2D01D1BDE836
:100B2000F087104800EB8534681C0E49891E01EBE4
:100B3000803913E02068401C0FD14146204600F068
:100B4000EFF80746092F01D03846E8E73146A01CE8
:100B500000F0E6F807463846E1E7241D4C45E9D3A6
:100B60008020DCE70080000800C0000870B5054662
:100B70000E46002431462846FFF7C2FF0446802C6B
:100B800004D131462846FFF719FF0446204670BDC0
:100B900010B501200249087000F004F810BD0000F3
:100BA000040000200149086070470000143C014027
:100BB000002123498279002A3AD00A461268036844
:100BC0009A430B461A600A1D126803689A430B1D6C
:100BD0001A60027911440A6803681A430A60184AC5
:100BE0000832126803689A43154B08331A601A1DBD
:100BF000126803689A43124B0C331A604279102A28
:100C00000ED11A1F126803681A430D4B08331A607D
:100C10001A1D126803681A43094B0C331A600DE061
:100C20000749427911440A6803681A430A6005E0DB
:100C3000027911440A6803689A430A607047000009
:100C4000003C014070B504460A460026092502B959
:100C500009E0012A01D1160205E0022A01D116029B
:100C600001E04FF4407600F095F80546092D28D1B3
:100C70001548006820F44070134908600846006871
:100C8000304308600846006820F0F8000860084615
:100C9000006844F0020108430B49086008460068F8
:100CA00040F48030086000F075F80546064800689A
:100CB00020F00200044908600846006820F0F800AF
:100CC0000860284670BD0000103C0240092013490E
:100CD000096801F48031B1F5803F01D101201CE0A9
:100CE0000E49096811F0100F01D0062015E00B49DC
:100CF000096811F4807F01D002200EE007490968DD
:100D000011F0EF0F01D0072007E00449096811F046
:100D1000020F01D0082000E0092070470C3C02407F
:100D200030B502460C46092500F034F80546092D79
:100D300019D10E48006820F440700C49086008463C
:100D4000006840F4807008600846006840F00100C8
:100D50000860148000F01EF805460448006820F082
:100D6000010002490860284630BD0000103C0240E6
:100D70000548006810F0004F05D0044802490C39BE
:100D80000860034808607047103C02402301674533
:100D9000AB89EFCD08B509200090FFF797FF0090D1
:100DA00002E0FFF793FF00909DF800000128F8D0C3
:100DB0009DF8000008BD000010B502460020002389
:100DC000102A03D14FF02044636E0DE0B2F5807F0E
:100DD00002D1094C236807E0B2F5805F02D1074CCD
:100DE000236801E0064C236803EA01048C4201D029
:100DF000002000E0012010BD840000A0A40000A09D
:100E0000580100A00021D0E900231A4383685B1E2B
:100E100042EA4312C36842EA4321014A1160704723
:100E2000500100A070B50021002200230024D0E969
:100E300001563543C668354306693543466935432F
:100E400086693543C6693543066A3543466A45EACD
:100E5000060105683DB94FF02046056806EB85059B
:100E6000C5F840110EE0D0E907563543466A45EA19
:100E70000603294D2B604FF02046056806EB8505DB
:100E8000C5F84011056835BB856A2D686D1E866AF8
:100E90007668761E45EA0616856AAD686D1E46EAD6
:100EA0000526856AED686D1E46EA0536856A2D8A37
:100EB0006D1E46EA0546856AAD8A6D1E46EA0556F0
:100EC000856A2D7E6D1E46EA0562134D083506685B
:100ED00045F826201FE0856A2D686D1E866A7668B3
:100EE000761E45EA0616856AAD686D1E46EA052639
:100EF000856A2D8A6D1E46EA0542856AED686D1E7B
:100F00002E03856AAD8A6D1E46EA0554034D2C609A
:100F1000066845F8262070BD400100A0480100A0E9
:100F20000449096841EA40014FF02042C2F85411D7
:100F300070470000540100A0F0B50A4600210023CC
:100F4000002400BF3DE0012505FA01F3156805EA1C
:100F500003049C4234D105684F000326BE40B543CC
:100F6000056015794E00B540066835430560157972
:100F7000012D02D01579022D16D185684F00032668
:100F8000BE40B543856055794E00B540866835430F
:100F90008560456801268E40B54345604568967971
:100FA0008E40B6B235434560C5684F000326BE404B
:100FB000B543C560D5794E00B540C6683543C560B8
:100FC000491C1029BFD3F0BDF0B5002300244D0704
:100FD000ED0E02FA05F3CE1000F1200555F826506B
:100FE0004E07F70E0F26BE40B543CF1000F1200686
:100FF00046F82750CE1000F1200555F8265045EA56
:101000000304CE1000F1200545F82640F0BD4183D1
:101010007047018370470AB1018300E04183704744
:1010200000BFFEE71CB501216F2000F045FE0E2237
:1010300003215048FFF7C8FF0E2204214D48FFF757
:10104000C3FF0E2206214B48FFF7BEFF0E220B21E5
:101050004848FFF7B9FF0E220C214648FFF7B4FFBE
:1010600041F65800009002208DF805008DF804002C
:1010700000208DF806008DF8070069463D48FFF70F
:101080005BFF092200213C48FFF79EFF0922012156
:101090003948FFF799FF0E2208213748FFF794FFE0
:1010A0000E2209213448FFF78FFF0E220A21324811
:1010B000FFF78AFF0E220B212F48FFF785FF40F62E
:1010C0000370009069462C48FFF736FF0E22062178
:1010D0002A48FFF779FF0E2207212848FFF774FFFF
:1010E0000E220A212548FFF76FFF4FF49860009009
:1010F00069462248FFF720FF0E2203212048FFF710
:1011000063FF0E2206211E48FFF75EFF4820009075
:1011100069461B48FFF710FF0E220A211948FFF706
:1011200053FF4FF48060009069461648FFF704FFB4
:101130000E2206211448FFF747FF0E22072112480E
:10114000FFF742FF09220A210F48FFF73DFF0E2259
:101150000B210D48FFF738FF09220C210A48FFF741
:1011600033FF4FF4E650009069460748FFF7E4FE6E
:101170001CBD0000000002400004024000080240C4
:10118000000C0240001402400018024010B5044652
:1011900024B904210448FFF73AFF03E00421024880
:1011A000FFF737FF10BD0000000802400146002095
:1011B00000BF04E0044B1B6823F81010401CB0F57E
:1011C000A02FF7D370470000740000201CB5012148
:1011D0000C2000F071FD0420009002208DF8050025
:1011E00001208DF8040000208DF806008DF807001E
:1011F00069460848FFF7A0FE4FF40050009069468A
:101200000548FFF799FE01220421024800F006F884
:101210001CBD000000080240000C024070B50446EE
:101220000D461646324629462046FFF7F4FE70BDAD
:1012300070B505460E461446A4F12000C4B2074816
:101240000068016805480068C088604301EB4002FF
:101250003146284600F02EF870BD00007C000020CA
:1012600070B506460C4600250AE02278294630462D
:10127000FFF7DEFF0E4800688088284485B2641CB2
:10128000F02D13DA0A4800688088284480B20849A3
:1012900009688988884201DB012000E0002021786C
:1012A00009B1012100E000210842DED170BD00003B
:1012B0007C0000202DE9F04104460D46134600BF96
:1012C000002200BF0020C4EB04177E012844002147
:1012D0004DE000223FE0294F3F68BF884FF00C0CE3
:1012E00097FBFCF74FEAC70C802707FA0CF717416A
:1012F00033F811C017EA0C0F04D1204F3F68BF88A4
:101300000C2F0DDD33F811704FF0010C0CFA02FCBC
:1013100017EA0C0F11D1194F3F68BF880C2F0CDD55
:10132000174F3F88DFF85CC0DCF800C04FF00208C0
:1013300008FB00CC2CF806700BE0134F3F88DFF859
:1013400044C0DCF800C04FF0020808FB00CC2CF8C9
:101350000670401C521C094F3F68BF889742BAD89C
:10136000064F3F68BF88C7F1F0073844491C034F58
:101370003F68FF888F42ACD8BDE8F0817C00002038
:1013800072000020740000207000002001480068F6
:10139000704700007C00002000B58FB0FFF716FFFB
:1013A0000020FFF7F3FE0120FFF7F0FE00F0DAF96E
:1013B00000F092F80121880600F0CEFC0121C8055A
:1013C00000F07AFCFFF72EFE00F048FE00200090AF
:1013D0000190029003900C900D900E900422072132
:1013E000C02000F00BFD4FF4003000F0F5FC0120B0
:1013F00000F0FEFC00BF3D2000F0CEFC0028FAD03B
:1014000009200490012005901D20069003200790DC
:1014100040F20D10089040F24310099040F217106E
:101420000A9040F247100B90684600F09DFA0FB00A
:1014300000BD000000B591B01E20019040F20D10DB
:1014400002900420039040F2431004900220059083
:10145000FF20069000200790089009900A904FF412
:1014600080600B9005200C9040F2E3100E90C01E9F
:101470000F904FF4A07010904FF050400D9001A9C4
:10148000124800F040FB12480D904FF4C0600B90E2
:1014900007200C9001A90D48803000F034FB01209A
:1014A00000F0BCFB0121094800F022FB01210748A4
:1014B000803000F01DFB012000F0B0FB054800F07B
:1014C000BBF9012000F03EFA11B000BD8468014074
:1014D000000005D05000002010B5CA2000F0C8F967
:1014E000C32000F0EBF9082000F0E8F9502000F0EC
:1014F000E5F9CF2000F0BCF9002000F0DFF9C120B1
:1015000000F0DCF9302000F0D9F9ED2000F0B0F95E
:10151000642000F0D3F9032000F0D0F9122000F08D
:10152000CDF9812000F0CAF9E82000F0A1F985206A
:1015300000F0C4F9002000F0C1F9782000F0BEF9F5
:10154000CB2000F095F9392000F0B8F92C2000F0FC
:10155000B5F9002000F0B2F9342000F0AFF9022014
:1015600000F0ACF9F72000F083F9202000F0A6F994
:10157000EA2000F07DF9002000F0A0F9002000F042
:101580009DF9B12000F074F9002000F097F91B20BC
:1015900000F094F9B62000F06BF90A2000F08EF903
:1015A000A22000F08BF9C02000F062F9102000F0BA
:1015B00085F9C12000F05CF9102000F07FF9C5200A
:1015C00000F056F9452000F079F9152000F076F981
:1015D000C72000F04DF9902000F070F9362000F09F
:1015E00047F9C82000F06AF9F22000F041F9002024
:1015F00000F064F9B02000F03BF9C22000F05EF981
:10160000B62000F035F90A2000F058F9A72000F0C4
:1016100055F9272000F052F9042000F04FF92A2054
:1016200000F026F9002000F049F9002000F046F90A
:10163000002000F043F9EF2000F040F92B2000F0EB
:1016400017F9002000F03AF9002000F037F90120E6
:1016500000F034F93F2000F031F9F62000F008F9ED
:10166000012000F02BF9002000F028F9062000F0FE
:1016700025F92C2000F0FCF8C82001F01BFD2620E5
:1016800000F0F6F8012000F019F9E02000F0F0F881
:101690000F2000F013F9292000F010F9242000F0A9
:1016A0000DF90C2000F00AF90E2000F007F90920CE
:1016B00000F004F94E2000F001F9782000F0FEF867
:1016C0003C2000F0FBF8092000F0F8F8132000F0AF
:1016D000F5F8052000F0F2F8172000F0EFF81120DF
:1016E00000F0ECF8002000F0E9F8E12000F0C0F88C
:1016F000002000F0E3F8162000F0E0F81B2000F0D6
:10170000DDF8042000F0DAF8112000F0D7F8072007
:1017100000F0D4F8312000F0D1F8332000F0CEF8FA
:10172000422000F0CBF8052000F0C8F80C2000F0B3
:10173000C5F80A2000F0C2F8282000F0BFF82F20DA
:1017400000F0BCF80F2000F0B9F8112000F090F87C
:10175000C82001F0AFFC292000F08AF82C2000F00E
:1017600087F810BD00B587B00121202000F0A4FA51
:101770000121080500F0F0FA8020009001208DF88A
:10178000050002208DF8040000208DF806000220DC
:101790008DF8070069462648FFF7CEFB4FF48070AE
:1017A000009069462248FFF7C7FB4FF40070009095
:1017B00069461F48FFF7C0FB052207211C48FFF7B9
:1017C00003FC052208211A48FFF7FEFB0522092128
:1017D0001748FFF7F9FB174800F0E4FC15480088AC
:1017E00010F0400F22D10020ADF808004FF48270B5
:1017F000ADF80A000020ADF80C00ADF80E00ADF811
:1018000010004FF40070ADF812001820ADF814006D
:101810000020ADF816000720ADF8180002A9054811
:1018200000F023FD0121034800F0B0FC07B000BD2B
:101830000014024000500140014908607047000058
:101840007C00002038B94FF05041064A1160002159
:10185000054A116005E00549024A11600121024A6A
:10186000116070477400002078000020000005D04F
:1018700010B5044600224FF400510E48FFF7CEFC8D
:101880000020FFF783FC21460B4800F0ECFC00BF72
:101890000221094800F0DEFC0028F9D000BF8021B9
:1018A000054800F0D7FC0028F9D10120FFF76EFCB5
:1018B00010BD0000000C02400050014010B504466D
:1018C000012251030D48FFF7A9FC0020FFF75EFC41
:1018D00021460B4800F0C7FC00BF0221084800F079
:1018E000B9FC0028F9D000BF8021054800F0B2FC07
:1018F0000028F9D10120FFF749FC10BD000C02407F
:101900000050014010B5002000F0CEFC012000F096
:10191000CBFC002000F0FAFC012000F0F7FC10BD29
:1019200030B10749096841F00101054A116005E03D
:101930000349096821F00101014A11607047000064
:101940001868014030B10749096841F48031054AFF
:10195000116005E00349096821F48031014A1160F2
:101960007047000018680140F0B5002100220023F4
:101970000024002500265B4F3F68DFF86CC107EAB2
:101980000C07DFF860C1CCF80070078A390467469D
:101990003F68D0F814C04CEA010C47EA0C07DFF8A6
:1019A00044C1CCF800700CF104073F68DFF838C17F
:1019B00007EA0C07DFF82CC10CF1040CCCF800701E
:1019C000078B3A0467463F68D0F81CC04CEA020C0B
:1019D00047EA0C07DFF80CC10CF1040CCCF80070DE
:1019E0000CF104073F68DFF800C107EA0C07DFF8D5
:1019F000F4C00CF1080CCCF80070078C3B0467466F
:101A00003F68D0F824C04CEA030C47EA0C07DFF823
:101A1000D4C00CF1080CCCF800700CF104073F683E
:101A2000DFF8C4C007EA0C07DFF8B8C00CF10C0CF3
:101A3000CCF80070078D3C046746D7F800C0C76A31
:101A400027434CEA070C274F0C37C7F800C03F1D4F
:101A50003F68DFF898C007EA0C07DFF888C00CF190
:101A6000100CCCF80070D0E9007C47EA0C07D0F8E5
:101A700008C047EA0C07D0F80CC047EA0C07DFF8AB
:101A800064C00CF1100CDCF800C047EA0C07DFF86A
:101A900054C00CF1100CCCF80070476B3D02078E5F
:101AA0003E04104F24373F6807F07F47DFF834C00B
:101AB0000CF1240CCCF8007046EA0507D0F838C0C9
:101AC00047EA0C07DFF81CC00CF1240CDCF800C05E
:101AD00047EA0C07DFF80CC00CF1240CCCF80070BE
:101AE000F0BD00000868014000F800F08F88FE0F8C
:101AF00021B1026842F00102026003E0026822F0B4
:101B00000102026070472DE9F04100240025002603
:101B1000002200270023B1F804C04FEA0C44D0F89B
:101B200004C00CF4704CC0F804C0D1F800C04CEAFA
:101B3000040CC0F804C0B1F80CC04FEA0C45D0F852
:101B400008C00CF4704CC0F808C0D1F808C04CEACA
:101B5000050CC0F808C0D0F810C02CF0070CC0F875
:101B600010C0D1F810C0C0F810C0D1F81CC04FEAA6
:101B70000C26B1F820C04FEA0C4291F824C04FEA7D
:101B80000C67D0F818C09C46C0F818C0D1F818C02F
:101B90004CEA060C4CEA020C4CEA070CC0F818C0E0
:101BA000D0F814C02CF0FF0CC0F814C0D1F814C049
:101BB000C0F814C0D0F81CC040F207782CEA080C1A
:101BC000C0F81CC0D1E90AC84CEA080CC0F81CC017
:101BD000D0F828C09C46C0F828C0D1F830C0C0F862
:101BE00028C0B1F838C04FEA0C43D0F82CC00CF034
:101BF000E02CC0F82CC0D1F834C04CEA030CC0F87B
:101C00002CC0D0F830C06FF30A0CC0F830C0D1F847
:101C10003CC0C0F830C0BDE8F08100000149086058
:101C2000704700002468014000BFFEE770470000D5
:101C300070B5002100230F22C47824B3174C246808
:101C400004F4E064C4F5E064C4F30721C1F10404C2
:101C5000E3B20A4144789C40E1B2847814402143C5
:101C60000C07210E0E4C05786155047804F01F0511
:101C70000124AC4005786D114FF0E02606EB850598
:101C8000C5F8004109E0047804F01F040125A540CF
:101C9000044C0678761144F8265070BD0CED00E037
:101CA00000E400E080E100E010B50121002000F038
:101CB00039FB10BD7047000029B1064A1268024383
:101CC000044B1A6004E0034A12688243014B1A6015
:101CD000704700003038024029B1064A12680243BA
:101CE000044B1A6004E0034A12688243014B1A60F5
:101CF000704700003438024029B1064A1268024396
:101D0000044B1A6004E0034A12688243014B1A60D4
:101D1000704700003838024029B1064A1268024371
:101D2000044B1A6004E0034A12688243014B1A60B4
:101D3000704700004038024029B1064A1268024349
:101D4000044B1A6004E0034A12688243014B1A6094
:101D5000704700002038024029B1064A1268024349
:101D6000044B1A6004E0034A12688243014B1A6074
:101D7000704700004438024029B1064A1268024305
:101D8000044B1A6004E0034A12688243014B1A6054
:101D9000704700002438024010B50146002200239D
:101DA00000204A11012A02D10A4C236808E0022AC5
:101DB00003D1084C7034236802E0064C7434236865
:101DC00001F01F02012494401C4201D0012000E0D8
:101DD000002010BD0038024001460020034A106870
:101DE00020F4403008431060704700008C380240F7
:101DF00001490867704700000000474210B58301A1
:101E000043EA016343EA0273014C236010BD000002
:101E10008838024030B10749096841F00401054A99
:101E2000116005E00349096821F00401014A1160CD
:101E3000704700000008065010B501214020FFF750
:101E40004BFF0120FFF7E6FF10BD000001480068CE
:101E500070470000080806501CB501217E20FFF7DE
:101E60002BFF02208DF804008DF8050000208DF86E
:101E700006008DF807000C2205217248FFF7A4F830
:101E80000C2206216F48FFF79FF8602000906946FA
:101E90006C48FFF751F80C2200216B48FFF794F8CB
:101EA0000120009069466848FFF746F80C2200219F
:101EB0006648FFF789F80C2201216448FFF784F88F
:101EC0000C2208216148FFF77FF80C2209215F48A6
:101ED000FFF77AF80C220A215C48FFF775F80C220C
:101EE0000E215A48FFF770F80C220F215748FFF7D0
:101EF0006BF84CF20370009069465448FFF71CF8E9
:101F00000C2200215248FFF75FF80C2201215048B3
:101F1000FFF75AF80C2207214D48FFF755F80C221D
:101F200008214B48FFF750F80C2209214848FFF7D9
:101F30004BF80C220A214648FFF746F80C220B21E9
:101F40004348FFF741F80C2211464148FFF73CF89F
:101F50000C220D213E48FFF737F80C220E213C4899
:101F6000FFF732F80C220F213948FFF72DF84FF612
:101F70008370009069463648FEF7DEFF0C22002190
:101F80003448FFF721F80C2201213248FFF71CF8F2
:101F90000C2202212F48FFF717F80C2203212D48AD
:101FA000FFF712F80C2204212A48FFF70DF80C2243
:101FB00005212848FFF708F80C220B212548FFF7D8
:101FC00003F80C2211462348FEF7FEFF0C220D21D8
:101FD0002048FEF7F9FF0C220E211E48FEF7F4FF01
:101FE0000C220F211B48FEF7EFFF4FF63F00009039
:101FF00069461848FEF7A0FF0C2200211648FEF79C
:10200000E3FF0C2201211448FEF7DEFF0C2204211D
:102010001148FEF7D9FF0C2205210F48FEF7D4FF27
:102020000C2208210C48FEF7CFFF0C220F210A4892
:10203000FEF7CAFF48F23310009069460648FEF7E3
:102040007BFF1CBD0004024000080240000C02405F
:1020500000100240001402400018024000B593B086
:10206000FFF7FAFE01210846FFF746FE0220019025
:10207000072002900420039007200490022005907E
:1020800006900790012008900020099004200A90F3
:1020900010200B9040200C904FF4C0700D90002049
:1020A0000E904FF400600F90002010904FF40050FD
:1020B000119001A8129008A8FEF7B4FE00F002F8F3
:1020C00013B000BD1FB5002401200090082001902E
:1020D000012002900020039000BF20210120FEF784
:1020E0006BFE0028F9D16846FEF78CFE0A2000F04E
:1020F000EFFF0220009008200190012002900020B4
:10210000039000BF20210120FEF756FE0028F9D1E0
:102110006846FEF777FE0320009008200190042017
:1021200002900020039000BF20210120FEF744FE12
:102130000028F9D16846FEF765FE00BF2021012086
:10214000FEF73AFE0028F9D16846FEF75BFE40F242
:102150003124042000900820019001200290039473
:1021600000BF20210120FEF727FE0028F9D1684694
:10217000FEF748FE40F26A50FEF7D2FE00BF202173
:102180000120FEF719FE0028F9D11FBD21B10288F8
:1021900042F04002028004E002884FF6BF731A400A
:1021A0000280704710B504462448844208D10121BA
:1021B0008014FFF7E1FD0021A014FFF7DDFD3CE0F6
:1021C0001F48844208D101210014FFF7B5FD00210A
:1021D0002014FFF7B1FD30E01A48844208D10121F4
:1021E000C013FFF7A9FD0021E013FFF7A5FD24E0D0
:1021F0001548844208D101214014FFF7BDFD00219C
:102200006014FFF7B9FD18E01048844209D101219C
:102210000805FFF7B1FD00214FF48010FFF7ACFD7A
:102220000BE00B48844208D101214805FFF7A4FDCB
:1022300000214FF40010FFF79FFD10BD003001405A
:1022400000380040003C0040003401400050014094
:10225000005401400246002013890B4201D00120A6
:1022600000E0002070478181704710B5002202888D
:1022700002F441520B884C8823438C882343CC883A
:1022800023430C8923434C8923438C892343CC89E2
:1022900023431A430280838B4FF2FF7423408383CE
:1022A0000B8A038210BD00001CB504460E4951F88C
:1022B00024000121FFF700FD0C4830F814000090C5
:1022C00001208DF8040000208DF8060001208DF813
:1022D000070002208DF80500054951F824006946E1
:1022E000FEF72AFE1CBD0000F4330008F03300089E
:1022F00040000020034931F81010034A52F8202012
:1023000051837047F033000840000020034931F842
:102310001010034A52F8202011837047F033000850
:102320004000002030B585B004460D46214951F8E3
:1023300024000121FFF7C0FC01218803FFF70CFDF9
:1023400000208DF8100002208DF813001A4830F894
:1023500014000390194951F8240003A9FEF7ECFD7D
:10236000012D24D1164A115D164A105D00F032F895
:10237000154830F81400019000208DF8080008205E
:102380008DF8090001208DF80A0001A8FEF710FC65
:102390000E48005D8DF800000F208DF801008DF8CB
:1023A000020001208DF803006846FFF741FC05B0EC
:1023B00030BD000000340008FC3300084800002055
:1023C0000734000806340008043400080834000804
:1023D0007047000030B500228B071C0F0F2303FA53
:1023E00004F20B4B8C1053F824309343084C8D109F
:1023F00044F8253023468C1053F824308C07240FE2
:1024000000FA04F42343024C8D1044F8253030BD0B
:10241000083801400CB50020019000904048006849
:1024200040F480303E49086000BF3D48006800F439
:10243000003000900198401C0190009818B9019854
:10244000B0F5A04FF1D13648006810F4003F02D03B
:102450000120009001E0002000900098012803D1A5
:1024600030482F49091D08602D484030006840F071
:1024700080502B49403108602B48006840F44040B0
:102480002949086026480830006825490831086055
:102490000846006840F4004008600846006840F4C0
:1024A000A05008601E48006840F080701C49086019
:1024B00000BF1B48006810F0007FFAD01A4800687F
:1024C00040F480301849086000BF1748406810F495
:1024D000803FFAD01448006840F400301249086088
:1024E00000BF1148406810F4003FFAD040F2057078
:1024F0000E4908600A480830006820F003000849C7
:10250000083108600846006840F00200086000BF1B
:1025100003480830006800F00C000828F8D10CBD12
:1025200000380240085A400700700040003C02405A
:102530007047000010B51548006840F4700013495A
:1025400008601348006840F001001149086000204D
:102550000F49083108600E4800680E4908400C49D0
:1025600008600D48091D0860081F006820F48020DD
:10257000091F0860002006490C310860FFF74AFF78
:102580004FF0006001498039086010BD88ED00E01F
:1025900000380240FFFFF6FE103000241FB5012175
:1025A0000220FFF7B9FB1D208DF8000000208DF8F8
:1025B000010001208DF802008DF803006846FFF746
:1025C00037FB4FF6FF70029006480088ADF8040014
:1025D0000020ADF80C00ADF8060001A9024800F09B
:1025E000ABF81FBD020000200004004010B502211E
:1025F000064800F03BF838B10221044800F024F806
:102600000021024800F096F810BD000000040040D0
:1026100000B585B00020ADF800000120ADF8020043
:102620000748008802900020ADF80C006946054874
:1026300000F036F80021034800F070F805B000BD46
:102640000000002000040040CA430282704721B10C
:10265000028842F00102028004E002884FF6FE7315
:102660001A40028070470146486A704730B50246FA
:10267000002000230024158A05EA0103958905EA54
:10268000010413B10CB1012000E0002030BD1AB1EB
:1026900083890B43838102E083898B438381704765
:1026A00070B5002400220023058C4FF6FE763540DD
:1026B0000584028C8388048B4FF68F752C40B51EE1
:1026C0002C400D882C43751E2A408D892A434D8845
:1026D0002A43104DA84202D00F4DA84213D14FF605
:1026E000F7752A40CD892A434FF6FB752A408D881D
:1026F0002A434FF6FF652B404FF6FF552B400D8ABE
:102700002B434D8A2B43838004838D684563028469
:1027100070BD000000000140000401400A46002195
:10272000018B4FF6F7731940114301837047018500
:10273000828270474162704700220288184B98429B
:102740000ED0184B98420BD0B0F1804F08D0164BEA
:10275000984205D0154B984202D0154B984204D1AF
:102760004FF68F731A404B881A43124B984207D08A
:10277000114B984204D04FF6FF431A400B891A437D
:1027800002804B68C3620B880385054B984202D0D8
:10279000044B984201D18B7A0386012383827047D0
:1027A0000000014000040140000400400008004017
:1027B000000C0040001000400014004000BFFEE785
:1027C0000FB4084B10B504A902AA039800F0CAF888
:1027D000044602A9002000F068FC204610BC5DF809
:1027E00014FB0000AB30000802E008C8121F08C14B
:1027F000002AFAD170477047002001E001C1121F82
:10280000002AFBD1704700002DE9FF5FDDE90220BF
:10281000010DDDF838B0024310D10F9801244CA20D
:10282000012808D0002100980F9BC0E90021C0E9D1
:102830000243BDE8FF9F6FEA0B01F4E7A1F2FF310D
:1028400044F6105041430D140F9801280ED0A5EB0B
:102850000B00401C4FF000043E4EDFF8FC90B0F13E
:10286000000AA04605DACAF1000717E0CBF1000024
:10287000F0E7074612E0F80707D022463346404605
:102880004946FDF79DFD804689462246334610465F
:102890001946FDF795FD04460E467F10002FEAD13C
:1028A000DDE90201BAF1000F42464B4602DAFDF7BC
:1028B00087FD01E0FDF7F6FD04460E460022274B9A
:1028C000FDF778FE03D84FF0FF30014607E0002205
:1028D000234B20463146FDF7CCFCFDF752FE102479
:1028E00009E0002C0ADB0A220023FDF791FC019B82
:1028F00030321A55641E50EA0102F2D1641C019A6A
:10290000C4F1110314440F9A012A09D0012208438B
:1029100001D15B450FDD4FF0000205F101050DE02F
:10292000084303D1A3EB0B056D1E09E000204FF017
:10293000110B0F9088E701DA00226D1E002A83D068
:1029400000980F99C0E90231C0E9004571E7000025
:1029500030000000000024400000F03F0000F04381
:102960000000E03F2DE9FF4F95B09B4689460646A3
:10297000002512E2252878D10024761CF94A274642
:10298000012105943378203B01FA03F0104202D074
:102990000443761CF6E730782A2811D06FF02F0315
:1029A0003078A0F13002092A16D8059A44F00204C2
:1029B00002EB820203EB42021044761C0590EFE723
:1029C00059F8042B0592002A03DA504244F40054CB
:1029D000059044F00204761C30782E2816D116F8A3
:1029E000010F44F004042A280DD06FF02F02307834
:1029F000A0F13003092B09D807EB870302EB43034F
:102A0000C718761CF3E759F8047B761C30786C28DD
:102A10000FD006DC4C2817D068280DD06A2814D1B6
:102A200004E0742810D07A280FD10DE044F400148B
:102A30000AE044F4801401E044F4401472788242C5
:102A400002D1761C04F58014761C307866280BD0F1
:102A500013DC582877D009DC002875D04528F6D03B
:102A60004628F4D047281AD19FE118E0632835D0D2
:102A7000642879D0652812D197E1702873D008DCDA
:102A80006728F1D069286FD06E280DD06F2806D145
:102A9000B5E073282CD0752875D0782874D05A46A4
:102AA000179990476D1C76E1C4F30250022809D0B3
:102AB00003280DD0D9F8001004280DD00D6009F1BD
:102AC000040968E1D9F80010EA17C1E90052F6E7F5
:102AD000D9F800100D80F2E70D70F0E719F8041B2B
:102AE0008DF8001000208DF80100EA46012003E077
:102AF00059F804AB4FF0FF3061074FF0000102D4EA
:102B00000DE008F101018846B9420FDA8045F8DB93
:102B10001AF808100029F4D108E008F101018846EC
:102B20008142FADB1AF808100029F6D105985B46B5
:102B3000A0EB080721463846179A00F09EFA284471
:102B400000EB080507E04DE02BE10DE01AF8010B62
:102B50005A4617999047B8F10108F7D25B462146CB
:102B60003846179A14E142E00A220092C4F3025256
:102B70004FF0000A022A08D059F804CB032A4FEA82
:102B8000EC710AD00DE029E02AE009F1070121F0FB
:102B90000702F2E802C1914609E00FFA8CFC4FEA05
:102BA000EC71042A03D14FFA8CFC4FEAEC71002936
:102BB00007DA0A460021DCF1000C61EB02012D224C
:102BC00002E0220504D52B228DF80420012203E027
:102BD000E20701D02022F7E7904653E00A2102E005
:102BE00010220DE010214FF0000A00910BE010229E
:102BF0004FF0000A44F004040827009203E0082282
:102C00004FF0000A0092C4F30252022A05D059F88C
:102C100004CB0021032A08D009E009F1070121F0C3
:102C20000702F2E802C1914605E01FFA8CFC042A73
:102C300001D10CF0FF0C4FF00008220722D57028BC
:102C400027D0009B83F0100353EA0A0309D15CEA02
:102C5000010206D030228DF804208DF805000222F2
:102C60009046009B83F0080353EA0A030AD15CEA0A
:102C7000010201D1620705D530228DF804204FF002
:102C800001087F1E582809D037A003900EA8029093
:102C900013E040228DF804200122E1E737A0F4E799
:102CA00053466046009AFDF7B3FA84460398825C67
:102CB0000298A0F10100029002705CEA0100EFD1DD
:102CC000029806A9A1EB000000F1200A600702D5D6
:102CD00024F4803400E00127574502DDA7EB0A0009
:102CE00000E0002000EB0A01009005984144A0EBB1
:102CF00001000590E00306D45B462146179A05982B
:102D000000F0BBF90544002706E001A85A46C05D63
:102D1000179990476D1C7F1C4745F6DBE0030CD5E7
:102D20005B462146179A059800F0A7F9054404E090
:102D300030205A46179990476D1C0099481E009004
:102D40000029F5DC08E0029802995A460078491CEF
:102D50000291179990476D1CBAF10001AAF1010A7E
:102D6000F1DC6BE10928010030313233343536377C
:102D700038396162636465660000000030313233C7
:102D80003435363738394142434445460000000067
:102D900000F060F9054406F10106307800287FF460
:102DA000E9AD19B02846BDE8F08F620700D40627C8
:102DB00009F1070222F0070CFCE80223E14603F0C8
:102DC00000485FEA080C02D00FF27C2C0DE05FEAAD
:102DD000045C02D50FF2742C07E05FEAC47C02D0D9
:102DE0000FF26C2C01E0AFF2700C4FF0FF3823F0C3
:102DF0000043CDF850C065280CD006DC452809D02A
:102E000046281DD047283ED13EE0662818D06728C6
:102E100039D139E00021112F01DB112000E0781CAD
:102E2000CDE9000106A90EA8FFF7EEFCDDE90F01D0
:102E30000E9A03910021009207F1010A04914EE0DD
:102E40004FF000400097CDE9011006A90EA8FFF74A
:102E5000DBFCDDE90F0203920E9B11990022DDF8E5
:102E60000CA00093049219B907F1010100EB010ACB
:102E7000B7EB0A0004D4C0F1FF3007F1010A049057
:102E8000AAEB0700019046E0012F00DA012700219C
:102E9000112F01DD112000E03846CDE9000106A91F
:102EA0000EA8FFF7B1FCDDE90F010E9A0391002196
:102EB00004910092BA4621070CD40399514500DAD7
:102EC0008A46BAF1010F05DD009AAAF10101515CB1
:102ED000302908D0B84202DA10F1040F06DA0121D5
:102EE000CDE9011017E0AAF10101E9E7002805DCAE
:102EF000049901440491AAEB000102E0411C5145F0
:102F000000DD8A460499A0EB010000F10100019068
:102F10004FF000400290200704D40198504501DB97
:102F2000CDF8048000208DF84F0002980DF14F0776
:102F3000B0F1004F25D02B200E9002984FF00208E0
:102F400000280CDA404202902D200E9007E00A2162
:102F50000298FDF747F93031029007F8011DB8F1EA
:102F60000001A8F10108F2DC02980028EFD1791ED7
:102F70000E980870307800F0200040F0450007F807
:102F8000020D12A8A0EB070000F1070814980078C2
:102F900000B1012000EB0A01019801EBE0710598F6
:102FA0004144A0EB0100A0F101000590E00306D42C
:102FB0005B462146179A059800F05FF8054414987F
:102FC000007820B15A461799904705F10105E003B2
:102FD00023D55B462146179A059800F04EF8054424
:102FE0001BE00498002807DBDDE90301884203DDCC
:102FF0000098405C179901E0179930205A46904795
:1030000004986D1C401C04900198401E019004D14E
:103010002E205A46179990476D1CBAF10001AAF16B
:10302000010ADEDC05E017F8010B5A4617999047B4
:103030006D1CB8F10001A8F10108F4DC5B462146E3
:10304000179A0598A4E600002D0000002B00000050
:10305000200000002DE9F041044600251E461746D9
:10306000880405D406E039462020B04705F1010563
:10307000641EF8D52846BDE8F0812DE9F0410446EC
:1030800000251E469046C80301D5302700E02027C2
:10309000880405D506E041463846B04705F10105EC
:1030A000641EF8D52846BDE8F0810A68531C0B6001
:1030B0001070704701B581B0002000900198009019
:1030C00002E00098401E009000980028F9D10CBD45
:1030D00001B581B000200090054901984843009057
:1030E00002E00098401E009000980028F9D10CBD25
:1030F000A0860100FEF7D8FDFEF704FC7E480068BC
:1031000040087E49B0FBF1F0401E7D490880FFF782
:1031100045FAFFF77DFA012202217A48FFF7B7FA54
:1031200001217848FFF793FAFEF736F9FEF782F9A6
:103130000120FEF7F5FB0120FEF784FBFDF718FEEA
:10314000FDF73CFBFEF778FE4FF6FF70FEF72EF81A
:10315000FEF71CF900246CA12046FEF781F8FEF76B
:1031600015F9C0884004040C69A12046FEF778F8E0
:103170006949088869490988FDF7F8FC66490888A3
:103180006749FDF78DFC6648028866A16648FFF72F
:1031900017FB00F0F5F8AEE05A48FFF764FA044672
:1031A00062480068A0B9A4F53060B83805D1FFF7CF
:1031B000ADF80120FFF7AAF80AE0A4F5B85070387E
:1031C00006D1FFF797F80120FFF794F800F0D8F840
:1031D00057480078012816D15448006898B9002053
:1031E000FFF788F80120FFF785F8002050490870A4
:1031F000FEF75AFD00F0E0F801204C49086000F0AD
:10320000A1F84C4908604948006801280BD1494899
:103210000068844207D10020FFF778F80120FFF70B
:1032200075F800F0C9F842480078012850D13F48AD
:10323000006801284CD122463AA13B48FFF7C0FA6A
:10324000FEF7A4F8C5883CA12846FEF709F8FEF76A
:103250009DF8C58834492846FEF702F82E490888AB
:103260002F49FDF71DFC2E480088A04207DD2B49A1
:103270000C802949088829490988FDF777FC2649E7
:1032800008882749FDF70CFC2548028825A1264817
:10329000FFF796FAFEF77AF8C08800EB400085B297
:1032A00025A12846FDF7DCFFFEF770F8C08800EB8B
:1032B000400085B21C492846FDF7D2FF00201C497A
:1032C0000870FEF7F1FC00F077F80220174908605B
:1032D0001748007801280DD114480068022809D148
:1032E000002013490870FEF7DFFC00F049F80020C9
:1032F0000E49086000BF4FE72800002020A107000A
:103300000200002000040040417474656D70740078
:103310005265636F726400000600002012000020F6
:103320000C00002025640000AE00002018000020E2
:10333000040000201C00002020202020202020202D
:103340002020000010B5FEF781FD0B49B0FBF1F025
:103350000A4908600846006841F27071884207DD3A
:10336000064800684900884202DA0448006810BD37
:10337000FFF7E8FF00BFFAE7C0D401001C000020FF
:1033800010B500210B48FFF762F90022022109481D
:10339000FFF77DF9012241F270710648FFF7C7F986
:1033A000012202210348FFF772F901210148FFF7CA
:1033B0004EF910BD0004004010B500210B48FFF786
:1033C00046F9002202210948FFF761F901224CF277
:1033D00050310648FFF7ABF9012202210348FFF7FD
:1033E00056F901210148FFF732F910BD00040040F1
:1033F00000200040400000004000000001000000EC
:1034000001000000010000000600000000000000B4
:1034100000000000000000000000000000000000AC
:10342000000000000000000000000000000000009C
:10343000000000000000000000000000800180018A
:103440008001800180018001800180018001800174
:1034500080018001800100000000800180010000E7
:103460000000000000000000000000000000CC0090
:10347000CC00CC00CC00CC00CC0000000000000050
:10348000000000000000000000000000000000003C
:10349000000000000000000000000000000000002C
:1034A000000000000000600C600C600C300630066C
:1034B000FE1FFE1F300638071803FE1FFE1F1803ED
:1034C00018038C018C018C01000000008000E003D7
:1034D000F80F9C0E8C1C8C188C009800F801E007EB
:1034E000800E801C8C188C189C18B80CF00FE00310
:1034F00080008000000000000000000000000000CC
:103500000E181B0C110C11061106110311039B015F
:103510008E01C038C06C604460443044304418446C
:10352000186C0C380000000000000000E001F003FF
:103530003807180618063003F001F000F8009C3137
:103540000E33061E061C061C063FFC73F02100000D
:1035500000000000000000000000000000000C005F
:103560000C000C000C000C000C000000000000001F
:10357000000000000000000000000000000000004B
:103580000000000000000000000000000002000336
:103590008001C000C00060006000300030003000DA
:1035A0003000300030003000300060006000C000AB
:1035B000C000800100030002000000002000600045
:1035C000C000800180010003000300060006000621
:1035D0000006000600060006000600030003800146
:1035E0008001C0006000200000000000000000001A
:1035F000000000000000C000C000D806F807E0018D
:103600003003380700000000000000000000000048
:1036100000000000000000000000000000000000AA
:103620000000000000008001800180018001800115
:10363000FC3FFC3F8001800180018001800100008F
:10364000000000000000000000000000000000007A
:10365000000000000000000000000000000000006A
:103660000000000000000000000000008001800158
:1036700000010001800000000000000000000000C8
:10368000000000000000000000000000000000003A
:103690000000E007E007000000000000000000005C
:1036A000000000000000000000000000000000001A
:1036B000000000000000000000000000000000000A
:1036C000000000000000000000000000C000C0007A
:1036D000000000000000000000000000000C000CD2
:1036E00000060006000600030003000380038001BB
:1036F00080018001C000C000C000600060000000C8
:10370000000000000000000000000000E003F007DF
:10371000380E180C0C180C180C180C180C180C1867
:103720000C180C180C18180C380EF007E0030000E9
:103730000000000000000000000000000001800107
:10374000C001F001980188018001800180018001A1
:1037500080018001800180018001800180010000E2
:10376000000000000000000000000000E003F80F6F
:10377000180C0C180C1800180018000C0006000398
:103780008001C000600030001800FC1FFC1F00001A
:10379000000000000000000000000000E001F80749
:1037A000180E0C0C0C0C000C0006C003C007000C1B
:1037B000001800180C180C18180CF807E00300008B
:1037C000000000000000000000000000000C000EDF
:1037D000000F000F800DC00C600C600C300C180C3A
:1037E0000C0CFC3FFC3F000C000C000C000C00001B
:1037F000000000000000000000000000F80FF80FBB
:10380000180018000C00EC03FC071C0E001C00182C
:10381000001800180C181C0C180EF807E003000024
:10382000000000000000000000000000C007F00FD2
:10383000381C181818000C00CC03EC0F3C0E1C1C94
:103840000C180C180C18181C380EF007E0030000B8
:10385000000000000000000000000000FC1FFC1F32
:10386000000C00060006000380038001C001C000B8
:10387000E0006000600070003000300030000000A8
:10388000000000000000000000000000E003F0075E
:10389000380E180C180C180C3806F007F007180C26
:1038A0000C180C180C180C18380CF80FE00300005A
:1038B000000000000000000000000000E003F0072E
:1038C000380E1C0C0C180C180C181C1C381EF81B7D
:1038D000E0190018000C000C1C0EF807F0010000A5
:1038E00000000000000000000000000000000000D8
:1038F00000000000000080018001000000000000C6
:1039000000000000000000000000800180010000B5
:1039100000000000000000000000000000000000A7
:103920000000000000008001800100000000000095
:103930000000000000000000000080018001000184
:1039400000018000000000000000000000000000F6
:10395000000000000000000000000010001C800FAC
:10396000E003F8001800F800E003800F001C0010CE
:103970000000000000000000000000000000000047
:1039800000000000000000000000F81F0000000020
:103990000000F81F00000000000000000000000010
:1039A0000000000000000000000000000000000017
:1039B0000000000000000000000008003800F001D6
:1039C000C007001F0018001FC007F00138000800E2
:1039D000000000000000000000000000E003F80FFD
:1039E000180C0C180C180018000C000600038001BD
:1039F000C000C000C00000000000C000C000000007
:103A00000000000000000000000000000000E007CF
:103A100018180420C229224A1144094409440944BF
:103A200009221113E20C024004201818E0070000DC
:103A30000000000000000000000000008003800380
:103A4000C006C006C006600C600C30183018301874
:103A5000F83FF83F1C700C600C6006C006C0000008
:103A6000000000000000000000000000FC03FC0F4C
:103A70000C0C0C180C180C180C0CFC07FC0F0C1878
:103A80000C300C300C300C300C18FC1FFC07000004
:103A9000000000000000000000000000C007F01F50
:103AA00038381C300C700660060006000600060060
:103AB0000600060006600C701C30F01FE0070000D6
:103AC000000000000000000000000000FE03FE0FE8
:103AD000060E061806180630063006300630063088
:103AE0000630063006180618060EFE0FFE0300000C
:103AF000000000000000000000000000FC3FFC3F50
:103B00000C000C000C000C000C00FC1FFC1F0C0037
:103B10000C000C000C000C000C00FC3FFC3F0000F3
:103B2000000000000000000000000000F83FF83F27
:103B300018001800180018001800F81FF81F1800C7
:103B400018001800180018001800180018000000CD
:103B5000000000000000000000000000E00FF83F3F
:103B60003C780E6006E007C00300030003FE03FE7E
:103B700003C007C006C00EC03CF0F83FE00F0000D5
:103B80000000000000000000000000000C300C30BD
:103B90000C300C300C300C300C30FC3FFC3F0C3047
:103BA0000C300C300C300C300C300C300C30000071
:103BB0000000000000000000000000008001800103
:103BC00080018001800180018001800180018001ED
:103BD000800180018001800180018001800100005E
:103BE00000000000000000000000000000060006C9
:103BF0000006000600060006000600060006000695
:103C000000060006180618063807F003E001000059
:103C10000000000000000000000000000630061850
:103C2000060C060606038601C60066007600DE0066
:103C30008E0106030606060C061806300660000014
:103C40000000000000000000000000001800180044
:103C500018001800180018001800180018001800A4
:103C600018001800180018001800F81FF81F0000AE
:103C70000000000000000000000000000EE01EF048
:103C80001EF01EF036D836D836D836D866CC66CC7C
:103C900066CCC6C6C6C6C6C6C6C686C386C3000030
:103CA0000000000000000000000000000C301C308C
:103CB0003C303C306C306C30CC30CC308C310C3300
:103CC0000C330C360C360C3C0C3C0C380C30000021
:103CD000000000000000000000000000E007F81FE6
:103CE0001C380E70066003C003C003C003C003C0CD
:103CF00003C003C006600E701C38F81FE007000008
:103D0000000000000000000000000000FC0FFC1F8D
:103D10000C380C300C300C300C300C18FC1FFC072D
:103D20000C000C000C000C000C000C000C0000003F
:103D3000000000000000000000000000E007F81F85
:103D40001C380E70066003E003C003C003C003C04C
:103D500003C007E006630E3F1C3CF83FE0F700C0DD
:103D6000000000000000000000000000FE0FFE1F29
:103D700006380630063006300638FE1FFE070603FA
:103D80000606060C06180618063006300660000007
:103D9000000000000000000000000000E003F80F39
:103DA0001C0C0C180C180C001C00F803E00F001E73
:103DB0000038063006300E301C1CF80FE0070000FB
:103DC000000000000000000000000000FE7FFE7FF9
:103DD00080018001800180018001800180018001DB
:103DE000800180018001800180018001800100004C
:103DF0000000000000000000000000000C300C304B
:103E00000C300C300C300C300C300C300C300C30D2
:103E10000C300C300C300C301818F81FE007000084
:103E200000000000000000000000000003600630F9
:103E3000063006300C180C180C18180C180C380E1C
:103E400030063006700760036003C001C001000047
:103E50000000000000000000000000000360C361DB
:103E6000C361C36166336633663366336633663374
:103E70006C1B6C1B6C1B2C1A3C1E380E380E000081
:103E80000000000000000000000000000FE00C70C7
:103E900018303018700C600EC00780038003C00318
:103EA000E006700C301C18180C300E6007E00000A3
:103EB00000000000000000000000000003C00660D9
:103EC0000C301C383818300C6006E007C003800145
:103ED000800180018001800180018001800100005B
:103EE000000000000000000000000000FC7FFC7FDC
:103EF000006000300018000C000600038001C000C4
:103F00006000300018000C000600FE7FFE7F0000FD
:103F1000000000000000000000000000E003E003DB
:103F20006000600060006000600060006000600091
:103F30006000600060006000600060006000600081
:103F400060006000E003E00300000000300030008B
:103F5000600060006000C000C000C000C0018001BF
:103F6000800180010003000300030006000600003A
:103F7000000000000000000000000000E003E0037B
:103F80000003000300030003000300030003000319
:103F90000003000300030003000300030003000309
:103FA00000030003E003E003000000000000C00184
:103FB000C00160036003600330063006180C180C63
:103FC00000000000000000000000000000000000F1
:103FD00000000000000000000000000000000000E1
:103FE00000000000000000000000000000000000D1
:103FF000000000000000000000000000FFFFFFFFC5
:104000000000000000000000000000000C000C0098
:104010000C000C000C000C00000000000000000070
:104020000000000000000000000000000000000090
:104030000000000000000000000000000000000080
:10404000000000000000F003F8071C0C0C0C000F2F
:10405000F00FF80C0C0C0C0C1C0FF80FF0180000F3
:104060000000000000000000000000001800180020
:10407000180018001800D803F80F380C1818181872
:104080001818181818181818380CF80FD80300004A
:104090000000000000000000000000000000000020
:1040A000000000000000C003F007300E180C1800DC
:1040B000180018001800180C300EF007C00300009C
:1040C00000000000000000000000000000180018C0
:1040D000001800180018C01BF01F301C1818181802
:1040E0001818181818181818301CF01FC01B0000DA
:1040F00000000000000000000000000000000000C0
:10410000000000000000C003F00F300C1818F81F6A
:10411000F81F180018003818301CF00FC0070000F6
:10412000000000000000000000000000800FC00F31
:10413000C000C000C000F007F007C000C000C00011
:10414000C000C000C000C000C000C000C00000002F
:10415000000000000000000000000000000000005F
:10416000000000000000E00DF80F180E0C0C0C0C05
:104170000C0C0C0C0C0C0C0C180EF80FE00D000CB9
:104180000C0C1C06F807F0010000000018001800D5
:10419000180018001800D807F80F381C181818183D
:1041A00018181818181818181818181818180000BF
:1041B000000000000000000000000000C000C0007F
:1041C000000000000000C000C000C000C000C0002F
:1041D000C000C000C000C000C000C000C00000009F
:1041E000000000000000000000000000C000C0004F
:1041F000000000000000C000C000C000C000C000FF
:10420000C000C000C000C000C000C000C000C000AE
:10421000C000C000F8007800000000000C000C0096
:104220000C000C000C000C0C0C060C038C01CC00D8
:104230006C00FC009C018C030C030C060C0C0000B1
:10424000000000000000000000000000C000C000EE
:10425000C000C000C000C000C000C000C000C0005E
:10426000C000C000C000C000C000C000C00000000E
:10427000000000000000000000000000000000003E
:104280000000000000007C3CFF7EC7E383C183C1C7
:1042900083C183C183C183C183C183C183C1000042
:1042A000000000000000000000000000000000000E
:1042B0000000000000009807F80F381C18181818A4
:1042C000181818181818181818181818181800009E
:1042D00000000000000000000000000000000000DE
:1042E000000000000000C003F00F300C1818181870
:1042F0001818181818181818300CF00FC003000000
:1043000000000000000000000000000000000000AD
:10431000000000000000D803F80F380C1818181817
:104320001818181818181818380CF80FD80318008F
:10433000180018001800180000000000000000001D
:10434000000000000000C01BF01F301C18181818D7
:104350001818181818181818301CF01FC01B00184F
:1043600000180018001800180000000000000000ED
:10437000000000000000B007F003700030003000C3
:1043800030003000300030003000300030000000DD
:10439000000000000000000000000000000000001D
:1043A000000000000000E003F003380E180C380095
:1043B000F003C007000C180C380EF007E0030000F3
:1043C000000000000000000000000000000080006D
:1043D000C000C000C000F007F007C000C000C0006F
:1043E000C000C000C000C000C000C00780070000BF
:1043F00000000000000000000000000000000000BD
:1044000000000000000018181818181818181818BC
:104410001818181818181818381CF01FE019000080
:10442000000000000000000000000000000000008C
:104430000000000000000C18180C180C180C3006B6
:1044400030063006600360036003C001C001000055
:10445000000000000000000000000000000000005C
:10446000000000000000C141C141C3616363636398
:1044700063633636363636361C1C1C1C1C1C00008A
:10448000000000000000000000000000000000002C
:104490000000000000001C38381C300C600660036F
:1044A0006003600360036006300C381C1C38000099
:1044B00000000000000000000000000000000000FC
:1044C0000000000000001830301830187018600C20
:1044D000600CE00CC006C0068003800380038001EE
:1044E0008001C001F000700000000000000000002A
:1044F000000000000000FC1FFC1F000C0006000371
:104500008001C000600030001800FC1FFC1F00008C
:104510000000000000000000000000000003800117
:10452000C000C000C000C000C000C000600060004B
:10453000300060004000C000C000C000C000C000EB
:10454000C000800100030000000000008001800125
:104550008001800180018001800180018001800153
:104560008001800180018001800180018001800143
:104570008001800180018001000000006000C00017
:10458000C0018001800180018001800100030003DF
:10459000000600030001800180018001800180018C
:1045A0008001C0006000000000000000000000006A
:1045B00000000000000000000000F010F81F080FCD
:1045C00000000000000000000000000000000000EB
:1045D00000000000000000000000000000000000DB
:1045E00000000000000000000000000000000000CB
:1045F00000000000002000200020002000200020FB
:1046000000200000002000000000000000500050CA
:10461000005000000000000000000000000000004A
:1046200000000000000900090012007F0012007F56
:104630000012002400240000000000100038005484
:10464000005000500038001400540054003800108E
:1046500000000000803000490049004AC0322005B7
:1046600020092009C010000000000000000C00120A
:10467000001200140018002500230023801D0000F4
:10468000000000000040004000400000000000006A
:104690000000000000000000000000000008001002
:1046A000001000200020002000200020002000102A
:1046B000001000000040002000200010001000103A
:1046C00000100010001000200020000000200070EA
:1046D000002000500000000000000000000000006A
:1046E000000000000000000000080008007F000833
:1046F00000080000000000000000000000000000B2
:104700000000000000000000000000000020002069
:1047100000400000000000000000000000000070E9
:104720000000000000000000000000000000000089
:104730000000000000000000000000000020000059
:1047400000000000001000100010002000200020D9
:104750000020004000400000000000000010002881
:1047600000440044004400440044002800100000BD
:104770000000000000100030005000100010001079
:104780000010001000100000000000000030004881
:10479000004400040008001000200040007C0000DD
:1047A000000000000030004800040008001000086D
:1047B000004400480030000000000000000800181D
:1047C0000018002800280048007C000800080000AD
:1047D00000000000003C0020004000700048000481
:1047E00000440048003000000000000000180024D1
:1047F0000040005000680044004400280010000001
:1048000000000000007C00040008001000100010F0
:104810000020002000200000000000000010002800
:104820000044002800100028004400280010000068
:10483000000000000010002800440044002C001478
:1048400000040048003000000000000000000000EC
:104850000020000000000000000000000020000018
:104860000000000000000000002000000000000028
:1048700000000000002000200040000000000004B4
:104880000008003000400030000800040000000074
:104890000000000000000000007C00000000007C20
:1048A00000000000000000000000000000000040C8
:1048B0000020001800040018002000400000000044
:1048C00000000000003800640044000400080010EC
:1048D000001000000010000000000000800F4010D9
:1048E000A02EA0512051205120512053C04D2020F6
:1048F0004010000000080014001400140022003EC4
:10490000002200410041000000000000003C0022A5
:1049100000220022003C002200220022003C000075
:1049200000000000000E00110021002000200020E7
:1049300000210011000E000000000000003C0022D9
:10494000002100210021002100210022003C000064
:1049500000000000003E002000200020003E00205B
:1049600000200020003E000000000000003E00206B
:1049700000200020003C002000200020002000003B
:1049800000000000000E001100210020002700217F
:1049900000210011000E0000000000000021002195
:1049A00000210021003F0021002100210021000002
:1049B0000000000000200020002000200020002037
:1049C0000020002000200000000000000008000877
:1049D00000080008000800080048004800300000F7
:1049E00000000000002200240028002800380028D1
:1049F000002400240022000000000000002000200D
:104A0000002000200020002000200020003E0000A8
:104A1000000000008020803180318031802A802A8F
:104A2000802A802A8024000000000000002100313C
:104A30000031002900290025002300230021000067
:104A400000000000000C00120021002100210021C4
:104A500000210012000C000000000000003C0022B9
:104A600000220022003C0020002000200020000046
:104A700000000000000C0012002100210021002194
:104A800000210016000D000100000000003E002182
:104A900000210021003E002400220021802000008F
:104AA00000000000001C002200220020001C000268
:104AB00000220022001C000000000000003E000850
:104AC00000080008000800080008000800080000AE
:104AD0000000000000210021002100210021002110
:104AE00000210012000C0000000000000041004105
:104AF000002200220022001400140014000800000C
:104B0000000000004044404A402A802A802A802A2F
:104B1000802A802A001100000000000000410022CD
:104B200000140014000800140014002200410000CA
:104B300000000000004100220022001400080008CC
:104B4000000800080008000000000000007E0002CD
:104B5000000400080010001000200040007E00004B
:104B60000000000000300020002000200020002075
:104B70000020002000200020002000000040004015
:104B80000020002000200020002000100010000065
:104B90000000000000600020002000200020002015
:104BA000002000200020002000200000001000282D
:104BB0000028002800440000000000000000000061
:104BC00000000000000000000000000000000000E5
:104BD0000000000000000000007E004000200000F7
:104BE00000000000000000000000000000000000C5
:104BF0000000000000000000003800440004003CF9
:104C000000440044003C0000000000000040004060
:104C10000058006400440044004400640058000050
:104C2000000000000000000000300048004000408C
:104C300000400048003000000000000000040004B4
:104C40000034004C004400440044004C0034000098
:104C50000000000000000000003800440044007C18
:104C600000400044003800000000000000600040E8
:104C700000E00040004000400040004000400000D4
:104C800000000000000000000034004C004400441C
:104C90000044004C00340004004400000040004088
:104CA00000580064004400440044004400440000F4
:104CB00000000000004000000040004000400040B4
:104CC00000400040004000000000000000400000E4
:104CD00000400040004000400040004000400040D4
:104CE00000400000004000400048005000600050BC
:104CF0000050004800480000000000000040004054
:104D000000400040004000400040004000400000E3
:104D100000000000000000000052006D0049004942
:104D200000490049004900000000000000000000A8
:104D30000058006400440044004400440044000063
:104D4000000000000000000000380044004400445F
:104D50000044004400380000000000000000000093
:104D600000580064004400440044006400580040BF
:104D700000400000000000000034004C00440044EB
:104D80000044004C00340004000400000000000057
:104D90000050006000400040004000400040000023
:104DA000000000000000000000300048004000301B
:104DB00000080048003000000000000000400040F3
:104DC00000E0004000400040004000400060000063
:104DD00000000000000000000044004400440044C3
:104DE0000044004C003400000000000000000000FF
:104DF000004400440028002800280028001000007B
:104E00000000000000000000004900490055005566
:104E100000550055002200000000000000000000C6
:104E2000004400280028001000280028004400004A
:104E3000000000000000000000440044002800289A
:104E400000280010001000100010000000000000FA
:104E500000780008001000200020004000780000CA
:104E60000000000000100020002000200020004072
:104E70000020002000200020002000000020002052
:104E80000020002000200020002000200020002022
:104E90000020000000400020002000200020001022
:104EA0000020002000200020002000000000000062
:104EB0000000007400580000000000000000000026
:104EC0000000000000000070005000500050005032
:104ED00000500050007000000000000000000000C2
:104EE00000000000000000000000000000000000C2
:104EF0000000000000000000100010001000100072
:104F00001000100000001000000000000000000071
:104F10002800280028000000000000000000000019
:104F20000000000000000000140014003E00140007
:104F300028007C002800280000000000000010006D
:104F40003800540050003800140014005400380099
:104F500010000000000000004400A800A80050005D
:104F600014001A002A0024000000000000000000C5
:104F70002000500050002000E800980098006000D9
:104F800000000000000000008000800080000000A1
:104F90000000000000000000000000000000000011
:104FA0004000800080008000800080008000800041
:104FB0008000000000000000800040004000400031
:104FC00040004000400040004000000000000000A1
:104FD0004000E0004000A0000000000000000000D1
:104FE0000000000000000000000000002000200081
:104FF000F800200020000000000000000000000079
:105000000000000000000000000000000000400060
:105010004000000000000000000000000000000050
:105020000000C000000000000000000000000000C0
:105030000000000000000000000000000000400030
:1050400000000000000000002000200020004000C0
:105050004000800080008000000000000000000090
:105060006000900090009000900090009000600020
:10507000000000000000000020006000A0002000F0
:1050800020002000200020000000000000000000A0
:105090006000900010001000200040008000F00030
:1050A00000000000000000006000900010006000A0
:1050B00010001000900060000000000000000000E0
:1050C00010003000500050009000F8001000100058
:1050D0000000000000000000700040008000E000C0
:1050E00010001000900060000000000000000000B0
:1050F000600090008000A000D00090009000600050
:105100000000000000000000F0001000200020005F
:1051100020004000400040000000000000000000AF
:10512000600090009000600090009000900060008F
:105130000000000000000000600090009000B0003F
:10514000500010009000600000000000000000000F
:1051500000000000400000000000000000004000CF
:1051600000000000000000000000000040000000FF
:1051700000000000000040004000000000000000AF
:1051800000000000100060008000600010000000BF
:105190000000000000000000000000000000F0001F
:1051A0000000F0000000000000000000000000000F
:1051B000000000008000600010006000800000001F
:1051C00000000000000000006000900010002000BF
:1051D000400040000000400000000000000000000F
:1051E0001C0022005B00A500A500A500A5009E00F4
:1051F000410000000000000020005000500050005E
:1052000050007000880088000000000000000000CE
:10521000F00088008800F000880088008800F00016
:1052200000000000000000003800440084008000FE
:1052300080008400440038000000000000000000EE
:10524000E000900088008800880088009000E0005E
:105250000000000000000000F80080008000F8005E
:10526000800080008000F8000000000000000000C6
:1052700078004000400070004000400040004000C6
:10528000000000000000000038004400840080009E
:105290009C00840044003800000000000000000072
:1052A000880088008800F80088008800880088004E
:1052B00000000000000000008000800080008000EE
:1052C00080008000800080000000000000000000DE
:1052D00010001000100010001000900090006000FE
:1052E000000000000000000088009000A000E00026
:1052F000A000900090008800000000000000000066
:105300008000800080008000800080008000F0002D
:1053100000000000000000008200C600C600AA00D5
:10532000AA00AA00AA0092000000000000000000ED
:105330008400C400A400A400940094008C008400A5
:1053400000000000000000003000480084008400DD
:1053500084008400480030000000000000000000CD
:10536000F000880088008800F00080008000800045
:1053700000000000000000003000480084008400AD
:105380008400840058003400040000000000000085
:105390007800440044007800500048004400420077
:1053A0000000000000000000700088008000700015
:1053B0000800880088007000000000000000000065
:1053C000F800200020002000200020002000200005
:1053D00000000000000000008400840084008400BD
:1053E000840084004800300000000000000000003D
:1053F00088008800500050005000500050002000ED
:1054000000000000000000009200AA00AA00AA000C
:10541000AA00AA00AA00440000000000000000004A
:1054200084004800480030003000480048008400F4
:105430000000000000000000880050005000200024
:1054400020002000200020000000000000000000DC
:10545000F800080010002000200040008000F80044
:105460000000000000000000C000800080008000FC
:1054700080008000800080008000000000000000AC
:1054800080008000400040004000400020002000DC
:105490000000000000000000C0004000400040008C
:1054A00040004000400040004000000000000000BC
:1054B0004000A000A000A0000000000000000000CC
:1054C00000000000000000000000000000000000DC
:1054D0000000000000000000F800000000000000D4
:1054E00080004000000000000000000000000000FC
:1054F000000000000000000000000000E0001000BC
:10550000700090009000700000000000000000009B
:1055100080008000A000D00090009000D000A0008B
:10552000000000000000000000000000600090008B
:10553000800080009000600000000000000000007B
:10554000100010005000B00090009000B00050001B
:10555000000000000000000000000000600090005B
:10556000F0008000900060000000000000000000DB
:10557000C0008000C00080008000800080008000AB
:105580000000000000000000000000005000B0001B
:1055900090009000B00050001000000000000000DB
:1055A00080008000A000D00090009000900090004B
:1055B000000000000000000080000000800080006B
:1055C00080008000800080000000000000000000DB
:1055D000800000008000800080008000800080004B
:1055E0008000000000000000800080009000A0000B
:1055F000C000A0009000900000000000000000002B
:10560000800080008000800080008000800080009A
:10561000000000000000000000000000A600DA000A
:105620009200920092009200000000000000000032
:1056300000000000A000D0009000900090009000BA
:10564000000000000000000000000000600090006A
:10565000900090009000600000000000000000003A
:1056600000000000A000D00090009000D000A0003A
:105670008000000000000000000000005000B000AA
:1056800090009000B00050001000000000000000EA
:1056900000000000A000C0008000800080008000AA
:1056A000000000000000000000000000E00090008A
:1056B000400020009000600000000000000000009A
:1056C00080008000C0008000800080008000C0005A
:1056D00000000000000000000000000090009000AA
:1056E00090009000B000500000000000000000009A
:1056F000000000008800880050005000500020008A
:105700000000000000000000000000009200AA005D
:10571000AA00AA00AA004400000000000000000047
:105720000000000088005000200020005000880089
:105730000000000000000000000000008800500091
:105740005000500020002000200000000000000059
:1057500000000000F0001000200040008000F00079
:105760000000000000000000C000800080008000F9
:105770000000800080008000800000000000000029
:105780008000800080008000800080008000800019
:105790008000000000000000C00040004000400009
:1057A00020004000400040004000000000000000D9
:1057B000000000000000E800B00000000000000051
:1057C00000000000000000000000E000A000A000B9
:1057D000A000A000A000E000000000000000000009
:1057E00000000000000000000000400040004000F9
:1057F00040004000400000004000A000A000A000C9
:105800000000000000000000000000002400240050
:10581000FE004800FC0048004800380054005000DA
:10582000380014001400540038004400A800A800F8
:10583000500014001A002A0024001000280028003C
:10584000100074004C004C003000100010001000DC
:105850000000000000000000000008001000100020
:1058600010001000100010000800100008000800D0
:1058700008000800080008001000000000002400D4
:1058800018003C0018002400000000000000100078
:1058900010007C001000100000000000000000005C
:1058A00000000000080008001000000000000000D8
:1058B00000003C00000000000000000000000000AC
:1058C0000000000000001800180008000800080090
:1058D00010001000200020002000180024002400E8
:1058E00024002400240024001800080018002800C8
:1058F0000800080008000800080038004400000004
:1059000004000800100020007C001800240004009F
:105910001800040004002400180004000C00140007
:10592000240044007E00040004003C00200020000D
:10593000380004000400240018001800240020008F
:10594000380024002400240018003C000400080053
:1059500008000800100010001000180024002400A7
:10596000180024002400240018001800240024003B
:1059700024001C0004002400180000000000100097
:1059800000000000100000000000000000000800FF
:1059900000000000080010000000000000000400EB
:1059A00018002000180004000000000000000000A3
:1059B0003C0000003C00000000000000000020004F
:1059C0001800040018002000000018002400040043
:1059D000080010001000000010003C004200990078
:1059E000A500A5009D004200380038004400440096
:1059F00044007C004400440044007800440044001B
:105A0000780044004400440078001C00220042005A
:105A100040004000420022001C007000480044008A
:105A2000440044004400480070007C0040004000F6
:105A30007C004000400040007C003C002000200032
:105A4000380020002000200020001C00220042001E
:105A500040004E00420022001C004400440044006C
:105A60007C0044004400440044001000100010007A
:105A700010001000100010001000040004000400CA
:105A800004000400240024001800440048005000D2
:105A90007000500048004800440020002000200012
:105AA00020002000200020003C008200C600C6002C
:105AB000AA00AA00AA00AA009200420062005200B6
:105AC00052004A004A0046004200180024004200EA
:105AD00042004200420024001800780044004400C4
