:020000040800F2
:1000000030040020C10100087903000855030008EE
:100010007503000809020008A1090008000000009B
:10002000000000000000000000000000B105000812
:100030000D0200080000000001040008110700087C
:10004000DB010008DB010008DB010008DB01000820
:10005000DB010008DB01000811020008DB010008D9
:10006000DB010008DB010008DB010008DB01000800
:10007000DB010008DB010008DB010008DB010008F0
:10008000DB010008DB010008DB010008DB010008E0
:10009000DB010008DB010008DB010008DB010008D0
:1000A000DB010008DB010008DB010008DB010008C0
:1000B000CD070008DB010008DB010008DB010008B8
:1000C000DB010008DB010008DB010008DB010008A0
:1000D000DB010008DB010008DB010008DB01000890
:1000E000DB010008DB010008DB010008DB01000880
:1000F000DB010008DB010008DB010008DB01000870
:10010000DB010008DB010008DB010008DB0100085F
:10011000DB010008DB010008DB010008DB0100084F
:10012000DB010008DB010008DB010008DB0100083F
:10013000DB010008DB010008DB010008DB0100082F
:10014000DB010008DB010008DB010008DB0100081F
:10015000DB010008DB010008DB010008DB0100080F
:10016000DB010008DB010008DB010008DB010008FF
:10017000DB010008DB010008DB010008DB010008EF
:10018000DB010008DB010008DB010008DB010008DF
:10019000DB010008DB010008DB010008DB010008CF
:1001A000DB010008DB010008DB010008DFF80CD0F0
:1001B00000F018F800480047510A000830040020F9
:1001C0000648804706480047FEE7FEE7FEE7FEE7F1
:1001D000FEE7FEE7FEE7FEE7FEE7FEE7150700089D
:1001E000AD010008064C074D06E0E06840F0010351
:1001F00094E8070098471034AC42F6D3FFF7DAFFD3
:10020000D40A0008F40A000800BFFEE770470000A7
:1002100010B501200249087000F004F810BD00007C
:10022000040000200149086070470000143C0140B0
:10023000002123498279002A3AD00A4612680368CD
:100240009A430B461A600A1D126803689A430B1DF5
:100250001A60027911440A6803681A430A60184A4E
:100260000832126803689A43154B08331A601A1D46
:10027000126803689A43124B0C331A604279102AB1
:100280000ED11A1F126803681A430D4B08331A6007
:100290001A1D126803681A43094B0C331A600DE0EB
:1002A0000749427911440A6803681A430A6005E065
:1002B000027911440A6803689A430A607047000093
:1002C000003C0140F0B50A4600210023002400BF95
:1002D0003DE0012505FA01F3156805EA03049C4297
:1002E00034D105684F000326BE40B543056015793B
:1002F0004E00B5400668354305601579012D02D0E2
:100300001579022D16D185684F000326BE40B543EE
:10031000856055794E00B5408668354385604568EF
:1003200001268E40B5434560456896798E40B6B249
:1003300035434560C5684F000326BE40B543C560E0
:10034000D5794E00B540C6683543C560491C1029B3
:10035000BFD3F0BD00BFFEE710B5002000F082F86B
:10036000012000F07FF8002000F0AEF8012000F03E
:10037000ABF810BD00BFFEE77047000070B500216C
:1003800000230F22C47824B3174C246804F4E064DB
:10039000C4F5E064C4F30721C1F10404E3B20A41E7
:1003A00044789C40E1B28478144021430C07210E2C
:1003B0000E4C05786155047804F01F050124AC400B
:1003C00005786D114FF0E02606EB8505C5F8004174
:1003D00009E0047804F01F040125A540044C0678C8
:1003E000761144F8265070BD0CED00E000E400E00A
:1003F00080E100E010B50121002000F083F810BD7D
:100400007047000029B1064A12680243044B1A6083
:1004100004E0034A12688243014B1A6070470000EF
:100420003038024029B1064A12680243044B1A6070
:1004300004E0034A12688243014B1A6070470000CF
:100440004038024029B1064A12680243044B1A6040
:1004500004E0034A12688243014B1A6070470000AF
:10046000443802401CB504460E4951F824000121CD
:10047000FFF7C8FF0C4830F81400009001208DF8F9
:10048000040000208DF8060001208DF807000220EE
:100490008DF80500054951F824006946FFF712FF61
:1004A0001CBD0000BC0A0008B80A00081C0000209F
:1004B000034931F81010034A52F820205183704745
:1004C000B80A00081C000020034931F81010034A44
:1004D00052F8202011837047B80A00081C00002041
:1004E000064951F820104969054A32F81020514058
:1004F000024A52F820205161704700001C00002081
:10050000B80A000830B585B004460D46214951F8B7
:1005100024000121FFF776FF01218803FFF792FFF6
:1005200000208DF8100002208DF813001A4830F8D2
:1005300014000390194951F8240003A9FFF7C2FEE3
:10054000012D24D1164A115D164A105D00F032F8D3
:10055000154830F81400019000208DF8080008209C
:100560008DF8090001208DF80A0001A8FFF760FE50
:100570000E48005D8DF800000F208DF801008DF809
:10058000020001208DF803006846FFF7F7FE05B072
:1005900030BD0000C80A0008C40A0008240000207A
:1005A000CF0A0008CE0A0008CC0A0008D00A0008CA
:1005B0007047000030B500228B071C0F0F2303FA91
:1005C00004F20B4B8C1053F824309343084C8D10DD
:1005D00044F8253023468C1053F824308C07240F20
:1005E00000FA04F42343024C8D1044F8253030BD4A
:1005F000083801400CB50020019000904048006888
:1006000040F480303E49086000BF3D48006800F477
:10061000003000900198401C0190009818B9019892
:10062000B0F5A04FF1D13648006810F4003F02D079
:100630000120009001E0002000900098012803D1E3
:1006400030482F49091D08602D484030006840F0AF
:1006500080502B49403108602B48006840F44040EE
:100660002949086026480830006825490831086093
:100670000846006840F4004008600846006840F4FE
:10068000A05008601E48006840F080701C49086057
:1006900000BF1B48006810F0007FFAD01A480068BD
:1006A00040F480301849086000BF1748406810F4D3
:1006B000803FFAD01448006840F4003012490860C6
:1006C00000BF1148406810F4003FFAD040F20570B6
:1006D0000E4908600A480830006820F00300084905
:1006E000083108600846006840F00200086000BF5A
:1006F00003480830006800F00C000828F8D10CBD51
:1007000000380240085A400700700040003C024098
:100710007047000010B51548006840F47000134998
:1007200008601348006840F001001149086000208B
:100730000F49083108600E4800680E4908400C490E
:1007400008600D48091D0860081F006820F480201B
:10075000091F0860002006490C310860FFF74AFFB6
:100760004FF0006001498039086010BD88ED00E05D
:1007700000380240FFFFF6FE103000241FB50121B3
:100780000846FFF74FFE1C208DF8000000208DF872
:10079000010001208DF802008DF803006846FFF784
:1007A000EDFD4FF6FF70029007480088ADF8040099
:1007B0000020ADF80C00ADF8060001A94FF0804014
:1007C00000F0ACF81FBD00000200002010B50221AF
:1007D000480700F03DF858B10221480700F026F81C
:1007E0000120FFF77DFE00214FF0804000F094F8DB
:1007F00010BD000000B585B00020ADF8000001205C
:10080000ADF802000848008802900020ADF80C0006
:1008100069464FF0804000F035F800214FF08040ED
:1008200000F06EF805B000BD00000020CA4302824F
:10083000704721B1028842F00102028004E0028880
:100840004FF6FE731A40028070470146486A7047AF
:1008500030B50246002000230024158A05EA010372
:10086000958905EA010413B10CB1012000E00020D4
:1008700030BD1AB183890B43838102E083898B43A6
:100880008381704770B5002400220023058C4FF649
:10089000FE7635400584028C8388048B4FF68F7575
:1008A0002C40B51E2C400D882C43751E2A408D8986
:1008B0002A434D882A43104DA84202D00F4DA8422A
:1008C00013D14FF6F7752A40CD892A434FF6FB75B1
:1008D0002A408D882A434FF6FF652B404FF6FF557F
:1008E0002B400D8A2B434D8A2B43838004838D68D4
:1008F0004563028470BD0000000001400004014017
:100900000A460021018B4FF6F7731940114301830A
:1009100070470185828270474162704700220288D9
:10092000184B98420ED0184B98420BD0B0F1804F24
:1009300008D0164B984205D0154B984202D0154B63
:10094000984204D14FF68F731A404B881A43124BCA
:10095000984207D0114B984204D04FF6FF431A40FB
:100960000B891A4302804B68C3620B880385054BD1
:10097000984202D0044B984201D18B7A038601231E
:1009800083827047000001400004014000040040E1
:1009900000080040000C004000100040001400401F
:1009A00000BFFEE702E008C8121F08C1002AFAD102
:1009B00070477047002001E001C1121F002AFBD1DF
:1009C0007047000010B500214FF08040FFF731FF65
:1009D000002202214807FFF74CFF1C490988481CE8
:1009E00000EBD0714910A0EB4101184A118001229F
:1009F00042F6E0619007FFF78CFF012202214807D1
:100A0000FFF737FF01218807FFF713FF00BF4FF003
:100A10008040FFF71AFF0446A4F5B850703805D19E
:100A2000FFF752FD0120FFF743FD09E0A4F5385020
:100A3000E03805D1FFF73CFD0120FFF745FD00E060
:100A4000E5E700BFFFF7BEFF10BD00000600002075
:100A5000FFF7D0FCFFF780FC1348006840081349FB
:100A6000B0FBF1F0401E12490880FFF787FEFFF748
:100A7000C1FE012202214807FFF7FBFE0121880782
:100A8000FFF7D7FE0EE00B48007801280AD10020BE
:100A9000FFF70EFD0120FFF70BFDFFF793FF00208E
:100AA00004490870EFE7000008000020400D030033
:100AB0000200002004000020002000404000000050
:100AC00040000000010000000100000001000000E3
:100AD00006000000F40A0008000000202C000000BE
:100AE000A4090008200B00082C00002004040000CA
:100AF000B40900085AD50000000000000095BA0AA9
:100B000000000000000000000102030406070809BD
:100B100000180240001802400000024000000000DF
:04000005080001C12D
:00000001FF
